{
  "abi": [
    {
      "inputs": [
        {
          "internalType": "address",
          "name": "_reputationManagerAddress",
          "type": "address"
        },
        {
          "internalType": "address",
          "name": "_userRegistryAddress",
          "type": "address"
        }
      ],
      "stateMutability": "nonpayable",
      "type": "constructor"
    },
    {
      "anonymous": false,
      "inputs": [
        {
          "indexed": false,
          "internalType": "uint256",
          "name": "ECId",
          "type": "uint256"
        },
        {
          "indexed": false,
          "internalType": "uint8",
          "name": "winningOption",
          "type": "uint8"
        }
      ],
      "name": "ExpertCaseClosed",
      "type": "event"
    },
    {
      "anonymous": false,
      "inputs": [
        {
          "indexed": false,
          "internalType": "uint256",
          "name": "ECId",
          "type": "uint256"
        },
        {
          "indexed": false,
          "internalType": "uint256",
          "name": "itemId",
          "type": "uint256"
        },
        {
          "indexed": false,
          "internalType": "string",
          "name": "openedBy",
          "type": "string"
        }
      ],
      "name": "ExpertCaseOpened",
      "type": "event"
    },
    {
      "anonymous": false,
      "inputs": [
        {
          "indexed": false,
          "internalType": "uint256",
          "name": "ECId",
          "type": "uint256"
        },
        {
          "indexed": false,
          "internalType": "string",
          "name": "voter",
          "type": "string"
        },
        {
          "indexed": false,
          "internalType": "uint8",
          "name": "option",
          "type": "uint8"
        }
      ],
      "name": "VoteCast",
      "type": "event"
    },
    {
      "inputs": [
        {
          "internalType": "uint256",
          "name": "_ECId",
          "type": "uint256"
        },
        {
          "internalType": "uint8",
          "name": "_option",
          "type": "uint8"
        },
        {
          "internalType": "string",
          "name": "_publicKey",
          "type": "string"
        }
      ],
      "name": "castVote",
      "outputs": [],
      "stateMutability": "nonpayable",
      "type": "function"
    },
    {
      "inputs": [
        {
          "internalType": "uint256",
          "name": "_ECId",
          "type": "uint256"
        }
      ],
      "name": "closeExpertCase",
      "outputs": [],
      "stateMutability": "nonpayable",
      "type": "function"
    },
    {
      "inputs": [
        {
          "internalType": "uint256",
          "name": "_ECId",
          "type": "uint256"
        }
      ],
      "name": "getExpertCase",
      "outputs": [
        {
          "internalType": "uint256",
          "name": "itemId",
          "type": "uint256"
        },
        {
          "internalType": "uint256",
          "name": "fieldId",
          "type": "uint256"
        },
        {
          "internalType": "uint256",
          "name": "minReputation",
          "type": "uint256"
        },
        {
          "internalType": "bool",
          "name": "botAllowed",
          "type": "bool"
        },
        {
          "internalType": "string",
          "name": "ECInfo",
          "type": "string"
        },
        {
          "internalType": "bool",
          "name": "isOpen",
          "type": "bool"
        }
      ],
      "stateMutability": "view",
      "type": "function"
    },
    {
      "inputs": [
        {
          "internalType": "uint256",
          "name": "_itemId",
          "type": "uint256"
        },
        {
          "internalType": "uint256",
          "name": "_fieldId",
          "type": "uint256"
        },
        {
          "internalType": "uint256",
          "name": "_minReputation",
          "type": "uint256"
        },
        {
          "internalType": "string",
          "name": "_publicKey",
          "type": "string"
        },
        {
          "internalType": "bool",
          "name": "_botAllowed",
          "type": "bool"
        },
        {
          "internalType": "string",
          "name": "_ECInfo",
          "type": "string"
        }
      ],
      "name": "openExpertCase",
      "outputs": [
        {
          "internalType": "uint256",
          "name": "",
          "type": "uint256"
        }
      ],
      "stateMutability": "nonpayable",
      "type": "function"
    }
  ],
  "bytecode": "6080604052348015600f57600080fd5b5060405161140b38038061140b833981016040819052602c916077565b600280546001600160a01b039384166001600160a01b0319918216179091556003805492909316911617905560a5565b80516001600160a01b0381168114607257600080fd5b919050565b60008060408385031215608957600080fd5b609083605c565b9150609c60208401605c565b90509250929050565b611357806100b46000396000f3fe608060405234801561001057600080fd5b506004361061004c5760003560e01c80632e0e16a4146100515780633f294d2514610066578063470b7622146100945780635830f441146100a7575b600080fd5b61006461005f366004610c1e565b6100c8565b005b610079610074366004610c1e565b61052c565b60405161008b96959493929190610c87565b60405180910390f35b6100646100a2366004610d8e565b610647565b6100ba6100b5366004610dfe565b610b66565b60405190815260200161008b565b6000818152602081905260409020600b0154610100900460ff166101075760405162461bcd60e51b81526004016100fe90610e95565b60405180910390fd5b6000818152602081905260409020600b015460ff1661015c5760405162461bcd60e51b81526020600482015260116024820152701150d7d85b1c9958591e57d8db1bdcd959607a1b60448201526064016100fe565b6000818152602081905260408120600b8101805460ff191690559080805b600a8401548110156101e757600084600a01828154811061019d5761019d610ebb565b600091825260208083208183040154601f9092166101000a90910460ff1680835260098801909152604090912054909150838111156101dd578093508194505b505060010161017a565b506000805b60088501548110156102e957600085600801828154811061020f5761020f610ebb565b90600052602060002001805461022490610ed1565b80601f016020809104026020016040519081016040528092919081815260200182805461025090610ed1565b801561029d5780601f106102725761010080835404028352916020019161029d565b820191906000526020600020905b81548152906001019060200180831161028057829003601f168201915b505050505090508460ff1686600701826040516102ba9190610f0b565b9081526040519081900360200190205460ff16036102e0576102dd600184610f3d565b92505b506001016101ec565b5060088401546000906102fd908390610f56565b90506000600a821361030f5781610312565b600a5b905060005b60088701548110156104e757600087600801828154811061033a5761033a610ebb565b90600052602060002001805461034f90610ed1565b80601f016020809104026020016040519081016040528092919081815260200182805461037b90610ed1565b80156103c85780601f1061039d576101008083540402835291602001916103c8565b820191906000526020600020905b8154815290600101906020018083116103ab57829003601f168201915b50505050509050600088600701826040516103e39190610f0b565b9081526040519081900360200190205460028a015460ff918216925090891682036104735760025460405163e08240f760e01b81526001600160a01b039091169063e08240f79061043c90869085908a90600401610f78565b600060405180830381600087803b15801561045657600080fd5b505af115801561046a573d6000803e3d6000fd5b505050506104dc565b60025460405163e08240f760e01b81526001600160a01b039091169063e08240f7906104a9908690859060001990600401610f78565b600060405180830381600087803b1580156104c357600080fd5b505af11580156104d7573d6000803e3d6000fd5b505050505b505050600101610317565b506040805188815260ff871660208201527f8bf7d50dd68e653dd0abd8b48091213b1c28a416043142408014a3a03a9e9d0f910160405180910390a150505050505050565b6000818152602081905260408120600b01548190819081906060908290610100900460ff1661056d5760405162461bcd60e51b81526004016100fe90610e95565b60008781526020819052604090206001810154600282015460038301546004840154600b85015460058601805460ff9384169391929091169082906105b190610ed1565b80601f01602080910402602001604051908101604052809291908181526020018280546105dd90610ed1565b801561062a5780601f106105ff5761010080835404028352916020019161062a565b820191906000526020600020905b81548152906001019060200180831161060d57829003601f168201915b505050505091509650965096509650965096505091939550919395565b6000838152602081905260409020600b0154610100900460ff1661067d5760405162461bcd60e51b81526004016100fe90610e95565b6000838152602081905260409020600b015460ff166106ca5760405162461bcd60e51b81526020600482015260096024820152681150d7d8db1bdcd95960ba1b60448201526064016100fe565b6000838152602081905260408082206003549151630438fcfb60e31b81529092916001600160a01b0316906321c7e7d890610709908690600401610fa4565b600060405180830381865afa158015610726573d6000803e3d6000fd5b505050506040513d6000823e601f3d908101601f1916820160405261074e919081019061100b565b905060008151116107975760405162461bcd60e51b81526020600482015260136024820152721d5cd95c97db9bdd17dc9959da5cdd195c9959606a1b60448201526064016100fe565b600354604051637c9b7fdd60e01b815260009182916001600160a01b0390911690637c9b7fdd906107cc908690600401610fa4565b600060405180830381865afa1580156107e9573d6000803e3d6000fd5b505050506040513d6000823e601f3d908101601f191682016040526108119190810190611050565b600488015492955093505060ff1690508061082a575080155b6108695760405162461bcd60e51b815260206004820152601060248201526f189bdd1cd7db9bdd17d85b1b1bddd95960821b60448201526064016100fe565b6000805b83518110156108ab57856002015484828151811061088d5761088d610ebb565b6020026020010151036108a357600191506108ab565b60010161086d565b50806108ef5760405162461bcd60e51b81526020600482015260136024820152721b9bdd17d95e1c195c9d17da5b97d99a595b19606a1b60448201526064016100fe565b6002805490860154604051630d1e914960e11b81526000926001600160a01b031691631a3d229291610925918b9160040161116b565b602060405180830381865afa158015610942573d6000803e3d6000fd5b505050506040513d601f19601f82011682018060405250810190610966919061118d565b905085600301548110156109b15760405162461bcd60e51b815260206004820152601260248201527172657075746174696f6e5f746f6f5f6c6f7760701b60448201526064016100fe565b85600601876040516109c39190610f0b565b9081526040519081900360200190205460ff1615610a135760405162461bcd60e51b815260206004820152600d60248201526c185b1c9958591e57dd9bdd1959609a1b60448201526064016100fe565b60018660060188604051610a279190610f0b565b9081526040805160209281900383019020805460ff19169315159390931790925560ff8a16600090815260098901909152908120805460019290610a6c908490610f3d565b92505081905550878660070188604051610a869190610f0b565b90815260405160209181900382019020805460ff191660ff9390931692909217909155600887018054600181018255600091825291902001610ac888826111f5565b5060ff88166000908152600987016020526040902054600103610b2057600a860180546001810182556000918252602091829020918104909101805460ff808c16601f9094166101000a938402930219169190911790555b7fb12b0cc09155fe7e138d6dc629d9423e647ccb8ed46efad953a0453e6d5ce2a789888a604051610b53939291906112b4565b60405180910390a1505050505050505050565b6001805460009182610b77836112e0565b9091555050600180546000818152602081905260409020818155918201899055600282018890556003820187905560048201805460ff19168615151790559060058101610bc485826111f5565b50600b8101805461ffff19166101011790556040517f183f3e56a09c858fdcbb19942e55ee3109804613bb598c2a8925cda073ee85d790610c0a9084908c908a906112f9565b60405180910390a150979650505050505050565b600060208284031215610c3057600080fd5b5035919050565b60005b83811015610c52578181015183820152602001610c3a565b50506000910152565b60008151808452610c73816020860160208601610c37565b601f01601f19169290920160200192915050565b868152856020820152846040820152831515606082015260c060808201526000610cb460c0830185610c5b565b905082151560a0830152979650505050505050565b634e487b7160e01b600052604160045260246000fd5b604051601f8201601f1916810167ffffffffffffffff81118282101715610d0857610d08610cc9565b604052919050565b600067ffffffffffffffff821115610d2a57610d2a610cc9565b50601f01601f191660200190565b600082601f830112610d4957600080fd5b8135610d5c610d5782610d10565b610cdf565b818152846020838601011115610d7157600080fd5b816020850160208301376000918101602001919091529392505050565b600080600060608486031215610da357600080fd5b83359250602084013560ff81168114610dbb57600080fd5b9150604084013567ffffffffffffffff811115610dd757600080fd5b610de386828701610d38565b9150509250925092565b8015158114610dfb57600080fd5b50565b60008060008060008060c08789031215610e1757600080fd5b863595506020870135945060408701359350606087013567ffffffffffffffff811115610e4357600080fd5b610e4f89828a01610d38565b9350506080870135610e6081610ded565b915060a087013567ffffffffffffffff811115610e7c57600080fd5b610e8889828a01610d38565b9150509295509295509295565b6020808252600c908201526b1150d7db9bdd17d95e1a5cdd60a21b604082015260600190565b634e487b7160e01b600052603260045260246000fd5b600181811c90821680610ee557607f821691505b602082108103610f0557634e487b7160e01b600052602260045260246000fd5b50919050565b60008251610f1d818460208701610c37565b9190910192915050565b634e487b7160e01b600052601160045260246000fd5b80820180821115610f5057610f50610f27565b92915050565b600082610f7357634e487b7160e01b600052601260045260246000fd5b500490565b606081526000610f8b6060830186610c5b565b90508360208301528260000b6040830152949350505050565b602081526000610fb76020830184610c5b565b9392505050565b600082601f830112610fcf57600080fd5b8151610fdd610d5782610d10565b818152846020838601011115610ff257600080fd5b611003826020830160208701610c37565b949350505050565b60006020828403121561101d57600080fd5b815167ffffffffffffffff81111561103457600080fd5b61100384828501610fbe565b805161104b81610ded565b919050565b6000806000806080858703121561106657600080fd5b845167ffffffffffffffff81111561107d57600080fd5b61108987828801610fbe565b945050602085015167ffffffffffffffff8111156110a657600080fd5b8501601f810187136110b757600080fd5b805167ffffffffffffffff8111156110d1576110d1610cc9565b8060051b6110e160208201610cdf565b9182526020818401810192908101908a8411156110fd57600080fd5b6020850194505b8385101561112357845180835260209586019590935090910190611104565b8097505050505050604085015167ffffffffffffffff81111561114557600080fd5b61115187828801610fbe565b92505061116060608601611040565b905092959194509250565b60408152600061117e6040830185610c5b565b90508260208301529392505050565b60006020828403121561119f57600080fd5b5051919050565b601f8211156111f057806000526020600020601f840160051c810160208510156111cd5750805b601f840160051c820191505b818110156111ed57600081556001016111d9565b50505b505050565b815167ffffffffffffffff81111561120f5761120f610cc9565b6112238161121d8454610ed1565b846111a6565b6020601f821160018114611257576000831561123f5750848201515b600019600385901b1c1916600184901b1784556111ed565b600084815260208120601f198516915b828110156112875787850151825560209485019460019092019101611267565b50848210156112a55786840151600019600387901b60f8161c191681555b50505050600190811b01905550565b8381526060602082015260006112cd6060830185610c5b565b905060ff83166040830152949350505050565b6000600182016112f2576112f2610f27565b5060010190565b8381528260208201526060604082015260006113186060830184610c5b565b9594505050505056fea26469706673582212203988a1b40f8c59306dd698f0f6fb298a4ca070e610b437a923c2eb72f27b654c64736f6c634300081c0033",
  "bytecodeSha1": "2d9955a62bf00f71064438d7b908fa5d08b7d8fe",
  "compiler": {
    "evm_version": "istanbul",
    "optimizer": {
      "enabled": true,
      "runs": 200
    },
    "version": "0.8.28+commit.7893614a"
  },
  "contractName": "ExpertCaseManager",
  "language": "Solidity",
  "natspec": {
    "kind": "dev",
    "methods": {},
    "version": 1
  },
  "opcodes": "PUSH1 0x80 PUSH1 0x40 MSTORE CALLVALUE DUP1 ISZERO PUSH2 0x10 JUMPI PUSH1 0x0 DUP1 REVERT JUMPDEST POP PUSH1 0x4 CALLDATASIZE LT PUSH2 0x4C JUMPI PUSH1 0x0 CALLDATALOAD PUSH1 0xE0 SHR DUP1 PUSH4 0x2E0E16A4 EQ PUSH2 0x51 JUMPI DUP1 PUSH4 0x3F294D25 EQ PUSH2 0x66 JUMPI DUP1 PUSH4 0x470B7622 EQ PUSH2 0x94 JUMPI DUP1 PUSH4 0x5830F441 EQ PUSH2 0xA7 JUMPI JUMPDEST PUSH1 0x0 DUP1 REVERT JUMPDEST PUSH2 0x64 PUSH2 0x5F CALLDATASIZE PUSH1 0x4 PUSH2 0xC1E JUMP JUMPDEST PUSH2 0xC8 JUMP JUMPDEST STOP JUMPDEST PUSH2 0x79 PUSH2 0x74 CALLDATASIZE PUSH1 0x4 PUSH2 0xC1E JUMP JUMPDEST PUSH2 0x52C JUMP JUMPDEST PUSH1 0x40 MLOAD PUSH2 0x8B SWAP7 SWAP6 SWAP5 SWAP4 SWAP3 SWAP2 SWAP1 PUSH2 0xC87 JUMP JUMPDEST PUSH1 0x40 MLOAD DUP1 SWAP2 SUB SWAP1 RETURN JUMPDEST PUSH2 0x64 PUSH2 0xA2 CALLDATASIZE PUSH1 0x4 PUSH2 0xD8E JUMP JUMPDEST PUSH2 0x647 JUMP JUMPDEST PUSH2 0xBA PUSH2 0xB5 CALLDATASIZE PUSH1 0x4 PUSH2 0xDFE JUMP JUMPDEST PUSH2 0xB66 JUMP JUMPDEST PUSH1 0x40 MLOAD SWAP1 DUP2 MSTORE PUSH1 0x20 ADD PUSH2 0x8B JUMP JUMPDEST PUSH1 0x0 DUP2 DUP2 MSTORE PUSH1 0x20 DUP2 SWAP1 MSTORE PUSH1 0x40 SWAP1 KECCAK256 PUSH1 0xB ADD SLOAD PUSH2 0x100 SWAP1 DIV PUSH1 0xFF AND PUSH2 0x107 JUMPI PUSH1 0x40 MLOAD PUSH3 0x461BCD PUSH1 0xE5 SHL DUP2 MSTORE PUSH1 0x4 ADD PUSH2 0xFE SWAP1 PUSH2 0xE95 JUMP JUMPDEST PUSH1 0x40 MLOAD DUP1 SWAP2 SUB SWAP1 REVERT JUMPDEST PUSH1 0x0 DUP2 DUP2 MSTORE PUSH1 0x20 DUP2 SWAP1 MSTORE PUSH1 0x40 SWAP1 KECCAK256 PUSH1 0xB ADD SLOAD PUSH1 0xFF AND PUSH2 0x15C JUMPI PUSH1 0x40 MLOAD PUSH3 0x461BCD PUSH1 0xE5 SHL DUP2 MSTORE PUSH1 0x20 PUSH1 0x4 DUP3 ADD MSTORE PUSH1 0x11 PUSH1 0x24 DUP3 ADD MSTORE PUSH17 0x1150D7D85B1C9958591E57D8DB1BDCD959 PUSH1 0x7A SHL PUSH1 0x44 DUP3 ADD MSTORE PUSH1 0x64 ADD PUSH2 0xFE JUMP JUMPDEST PUSH1 0x0 DUP2 DUP2 MSTORE PUSH1 0x20 DUP2 SWAP1 MSTORE PUSH1 0x40 DUP2 KECCAK256 PUSH1 0xB DUP2 ADD DUP1 SLOAD PUSH1 0xFF NOT AND SWAP1 SSTORE SWAP1 DUP1 DUP1 JUMPDEST PUSH1 0xA DUP5 ADD SLOAD DUP2 LT ISZERO PUSH2 0x1E7 JUMPI PUSH1 0x0 DUP5 PUSH1 0xA ADD DUP3 DUP2 SLOAD DUP2 LT PUSH2 0x19D JUMPI PUSH2 0x19D PUSH2 0xEBB JUMP JUMPDEST PUSH1 0x0 SWAP2 DUP3 MSTORE PUSH1 0x20 DUP1 DUP4 KECCAK256 DUP2 DUP4 DIV ADD SLOAD PUSH1 0x1F SWAP1 SWAP3 AND PUSH2 0x100 EXP SWAP1 SWAP2 DIV PUSH1 0xFF AND DUP1 DUP4 MSTORE PUSH1 0x9 DUP9 ADD SWAP1 SWAP2 MSTORE PUSH1 0x40 SWAP1 SWAP2 KECCAK256 SLOAD SWAP1 SWAP2 POP DUP4 DUP2 GT ISZERO PUSH2 0x1DD JUMPI DUP1 SWAP4 POP DUP2 SWAP5 POP JUMPDEST POP POP PUSH1 0x1 ADD PUSH2 0x17A JUMP JUMPDEST POP PUSH1 0x0 DUP1 JUMPDEST PUSH1 0x8 DUP6 ADD SLOAD DUP2 LT ISZERO PUSH2 0x2E9 JUMPI PUSH1 0x0 DUP6 PUSH1 0x8 ADD DUP3 DUP2 SLOAD DUP2 LT PUSH2 0x20F JUMPI PUSH2 0x20F PUSH2 0xEBB JUMP JUMPDEST SWAP1 PUSH1 0x0 MSTORE PUSH1 0x20 PUSH1 0x0 KECCAK256 ADD DUP1 SLOAD PUSH2 0x224 SWAP1 PUSH2 0xED1 JUMP JUMPDEST DUP1 PUSH1 0x1F ADD PUSH1 0x20 DUP1 SWAP2 DIV MUL PUSH1 0x20 ADD PUSH1 0x40 MLOAD SWAP1 DUP2 ADD PUSH1 0x40 MSTORE DUP1 SWAP3 SWAP2 SWAP1 DUP2 DUP2 MSTORE PUSH1 0x20 ADD DUP3 DUP1 SLOAD PUSH2 0x250 SWAP1 PUSH2 0xED1 JUMP JUMPDEST DUP1 ISZERO PUSH2 0x29D JUMPI DUP1 PUSH1 0x1F LT PUSH2 0x272 JUMPI PUSH2 0x100 DUP1 DUP4 SLOAD DIV MUL DUP4 MSTORE SWAP2 PUSH1 0x20 ADD SWAP2 PUSH2 0x29D JUMP JUMPDEST DUP3 ADD SWAP2 SWAP1 PUSH1 0x0 MSTORE PUSH1 0x20 PUSH1 0x0 KECCAK256 SWAP1 JUMPDEST DUP2 SLOAD DUP2 MSTORE SWAP1 PUSH1 0x1 ADD SWAP1 PUSH1 0x20 ADD DUP1 DUP4 GT PUSH2 0x280 JUMPI DUP3 SWAP1 SUB PUSH1 0x1F AND DUP3 ADD SWAP2 JUMPDEST POP POP POP POP POP SWAP1 POP DUP5 PUSH1 0xFF AND DUP7 PUSH1 0x7 ADD DUP3 PUSH1 0x40 MLOAD PUSH2 0x2BA SWAP2 SWAP1 PUSH2 0xF0B JUMP JUMPDEST SWAP1 DUP2 MSTORE PUSH1 0x40 MLOAD SWAP1 DUP2 SWAP1 SUB PUSH1 0x20 ADD SWAP1 KECCAK256 SLOAD PUSH1 0xFF AND SUB PUSH2 0x2E0 JUMPI PUSH2 0x2DD PUSH1 0x1 DUP5 PUSH2 0xF3D JUMP JUMPDEST SWAP3 POP JUMPDEST POP PUSH1 0x1 ADD PUSH2 0x1EC JUMP JUMPDEST POP PUSH1 0x8 DUP5 ADD SLOAD PUSH1 0x0 SWAP1 PUSH2 0x2FD SWAP1 DUP4 SWAP1 PUSH2 0xF56 JUMP JUMPDEST SWAP1 POP PUSH1 0x0 PUSH1 0xA DUP3 SGT PUSH2 0x30F JUMPI DUP2 PUSH2 0x312 JUMP JUMPDEST PUSH1 0xA JUMPDEST SWAP1 POP PUSH1 0x0 JUMPDEST PUSH1 0x8 DUP8 ADD SLOAD DUP2 LT ISZERO PUSH2 0x4E7 JUMPI PUSH1 0x0 DUP8 PUSH1 0x8 ADD DUP3 DUP2 SLOAD DUP2 LT PUSH2 0x33A JUMPI PUSH2 0x33A PUSH2 0xEBB JUMP JUMPDEST SWAP1 PUSH1 0x0 MSTORE PUSH1 0x20 PUSH1 0x0 KECCAK256 ADD DUP1 SLOAD PUSH2 0x34F SWAP1 PUSH2 0xED1 JUMP JUMPDEST DUP1 PUSH1 0x1F ADD PUSH1 0x20 DUP1 SWAP2 DIV MUL PUSH1 0x20 ADD PUSH1 0x40 MLOAD SWAP1 DUP2 ADD PUSH1 0x40 MSTORE DUP1 SWAP3 SWAP2 SWAP1 DUP2 DUP2 MSTORE PUSH1 0x20 ADD DUP3 DUP1 SLOAD PUSH2 0x37B SWAP1 PUSH2 0xED1 JUMP JUMPDEST DUP1 ISZERO PUSH2 0x3C8 JUMPI DUP1 PUSH1 0x1F LT PUSH2 0x39D JUMPI PUSH2 0x100 DUP1 DUP4 SLOAD DIV MUL DUP4 MSTORE SWAP2 PUSH1 0x20 ADD SWAP2 PUSH2 0x3C8 JUMP JUMPDEST DUP3 ADD SWAP2 SWAP1 PUSH1 0x0 MSTORE PUSH1 0x20 PUSH1 0x0 KECCAK256 SWAP1 JUMPDEST DUP2 SLOAD DUP2 MSTORE SWAP1 PUSH1 0x1 ADD SWAP1 PUSH1 0x20 ADD DUP1 DUP4 GT PUSH2 0x3AB JUMPI DUP3 SWAP1 SUB PUSH1 0x1F AND DUP3 ADD SWAP2 JUMPDEST POP POP POP POP POP SWAP1 POP PUSH1 0x0 DUP9 PUSH1 0x7 ADD DUP3 PUSH1 0x40 MLOAD PUSH2 0x3E3 SWAP2 SWAP1 PUSH2 0xF0B JUMP JUMPDEST SWAP1 DUP2 MSTORE PUSH1 0x40 MLOAD SWAP1 DUP2 SWAP1 SUB PUSH1 0x20 ADD SWAP1 KECCAK256 SLOAD PUSH1 0x2 DUP11 ADD SLOAD PUSH1 0xFF SWAP2 DUP3 AND SWAP3 POP SWAP1 DUP10 AND DUP3 SUB PUSH2 0x473 JUMPI PUSH1 0x2 SLOAD PUSH1 0x40 MLOAD PUSH4 0xE08240F7 PUSH1 0xE0 SHL DUP2 MSTORE PUSH1 0x1 PUSH1 0x1 PUSH1 0xA0 SHL SUB SWAP1 SWAP2 AND SWAP1 PUSH4 0xE08240F7 SWAP1 PUSH2 0x43C SWAP1 DUP7 SWAP1 DUP6 SWAP1 DUP11 SWAP1 PUSH1 0x4 ADD PUSH2 0xF78 JUMP JUMPDEST PUSH1 0x0 PUSH1 0x40 MLOAD DUP1 DUP4 SUB DUP2 PUSH1 0x0 DUP8 DUP1 EXTCODESIZE ISZERO DUP1 ISZERO PUSH2 0x456 JUMPI PUSH1 0x0 DUP1 REVERT JUMPDEST POP GAS CALL ISZERO DUP1 ISZERO PUSH2 0x46A JUMPI RETURNDATASIZE PUSH1 0x0 DUP1 RETURNDATACOPY RETURNDATASIZE PUSH1 0x0 REVERT JUMPDEST POP POP POP POP PUSH2 0x4DC JUMP JUMPDEST PUSH1 0x2 SLOAD PUSH1 0x40 MLOAD PUSH4 0xE08240F7 PUSH1 0xE0 SHL DUP2 MSTORE PUSH1 0x1 PUSH1 0x1 PUSH1 0xA0 SHL SUB SWAP1 SWAP2 AND SWAP1 PUSH4 0xE08240F7 SWAP1 PUSH2 0x4A9 SWAP1 DUP7 SWAP1 DUP6 SWAP1 PUSH1 0x0 NOT SWAP1 PUSH1 0x4 ADD PUSH2 0xF78 JUMP JUMPDEST PUSH1 0x0 PUSH1 0x40 MLOAD DUP1 DUP4 SUB DUP2 PUSH1 0x0 DUP8 DUP1 EXTCODESIZE ISZERO DUP1 ISZERO PUSH2 0x4C3 JUMPI PUSH1 0x0 DUP1 REVERT JUMPDEST POP GAS CALL ISZERO DUP1 ISZERO PUSH2 0x4D7 JUMPI RETURNDATASIZE PUSH1 0x0 DUP1 RETURNDATACOPY RETURNDATASIZE PUSH1 0x0 REVERT JUMPDEST POP POP POP POP JUMPDEST POP POP POP PUSH1 0x1 ADD PUSH2 0x317 JUMP JUMPDEST POP PUSH1 0x40 DUP1 MLOAD DUP9 DUP2 MSTORE PUSH1 0xFF DUP8 AND PUSH1 0x20 DUP3 ADD MSTORE PUSH32 0x8BF7D50DD68E653DD0ABD8B48091213B1C28A416043142408014A3A03A9E9D0F SWAP2 ADD PUSH1 0x40 MLOAD DUP1 SWAP2 SUB SWAP1 LOG1 POP POP POP POP POP POP POP JUMP JUMPDEST PUSH1 0x0 DUP2 DUP2 MSTORE PUSH1 0x20 DUP2 SWAP1 MSTORE PUSH1 0x40 DUP2 KECCAK256 PUSH1 0xB ADD SLOAD DUP2 SWAP1 DUP2 SWAP1 DUP2 SWAP1 PUSH1 0x60 SWAP1 DUP3 SWAP1 PUSH2 0x100 SWAP1 DIV PUSH1 0xFF AND PUSH2 0x56D JUMPI PUSH1 0x40 MLOAD PUSH3 0x461BCD PUSH1 0xE5 SHL DUP2 MSTORE PUSH1 0x4 ADD PUSH2 0xFE SWAP1 PUSH2 0xE95 JUMP JUMPDEST PUSH1 0x0 DUP8 DUP2 MSTORE PUSH1 0x20 DUP2 SWAP1 MSTORE PUSH1 0x40 SWAP1 KECCAK256 PUSH1 0x1 DUP2 ADD SLOAD PUSH1 0x2 DUP3 ADD SLOAD PUSH1 0x3 DUP4 ADD SLOAD PUSH1 0x4 DUP5 ADD SLOAD PUSH1 0xB DUP6 ADD SLOAD PUSH1 0x5 DUP7 ADD DUP1 SLOAD PUSH1 0xFF SWAP4 DUP5 AND SWAP4 SWAP2 SWAP3 SWAP1 SWAP2 AND SWAP1 DUP3 SWAP1 PUSH2 0x5B1 SWAP1 PUSH2 0xED1 JUMP JUMPDEST DUP1 PUSH1 0x1F ADD PUSH1 0x20 DUP1 SWAP2 DIV MUL PUSH1 0x20 ADD PUSH1 0x40 MLOAD SWAP1 DUP2 ADD PUSH1 0x40 MSTORE DUP1 SWAP3 SWAP2 SWAP1 DUP2 DUP2 MSTORE PUSH1 0x20 ADD DUP3 DUP1 SLOAD PUSH2 0x5DD SWAP1 PUSH2 0xED1 JUMP JUMPDEST DUP1 ISZERO PUSH2 0x62A JUMPI DUP1 PUSH1 0x1F LT PUSH2 0x5FF JUMPI PUSH2 0x100 DUP1 DUP4 SLOAD DIV MUL DUP4 MSTORE SWAP2 PUSH1 0x20 ADD SWAP2 PUSH2 0x62A JUMP JUMPDEST DUP3 ADD SWAP2 SWAP1 PUSH1 0x0 MSTORE PUSH1 0x20 PUSH1 0x0 KECCAK256 SWAP1 JUMPDEST DUP2 SLOAD DUP2 MSTORE SWAP1 PUSH1 0x1 ADD SWAP1 PUSH1 0x20 ADD DUP1 DUP4 GT PUSH2 0x60D JUMPI DUP3 SWAP1 SUB PUSH1 0x1F AND DUP3 ADD SWAP2 JUMPDEST POP POP POP POP POP SWAP2 POP SWAP7 POP SWAP7 POP SWAP7 POP SWAP7 POP SWAP7 POP SWAP7 POP POP SWAP2 SWAP4 SWAP6 POP SWAP2 SWAP4 SWAP6 JUMP JUMPDEST PUSH1 0x0 DUP4 DUP2 MSTORE PUSH1 0x20 DUP2 SWAP1 MSTORE PUSH1 0x40 SWAP1 KECCAK256 PUSH1 0xB ADD SLOAD PUSH2 0x100 SWAP1 DIV PUSH1 0xFF AND PUSH2 0x67D JUMPI PUSH1 0x40 MLOAD PUSH3 0x461BCD PUSH1 0xE5 SHL DUP2 MSTORE PUSH1 0x4 ADD PUSH2 0xFE SWAP1 PUSH2 0xE95 JUMP JUMPDEST PUSH1 0x0 DUP4 DUP2 MSTORE PUSH1 0x20 DUP2 SWAP1 MSTORE PUSH1 0x40 SWAP1 KECCAK256 PUSH1 0xB ADD SLOAD PUSH1 0xFF AND PUSH2 0x6CA JUMPI PUSH1 0x40 MLOAD PUSH3 0x461BCD PUSH1 0xE5 SHL DUP2 MSTORE PUSH1 0x20 PUSH1 0x4 DUP3 ADD MSTORE PUSH1 0x9 PUSH1 0x24 DUP3 ADD MSTORE PUSH9 0x1150D7D8DB1BDCD959 PUSH1 0xBA SHL PUSH1 0x44 DUP3 ADD MSTORE PUSH1 0x64 ADD PUSH2 0xFE JUMP JUMPDEST PUSH1 0x0 DUP4 DUP2 MSTORE PUSH1 0x20 DUP2 SWAP1 MSTORE PUSH1 0x40 DUP1 DUP3 KECCAK256 PUSH1 0x3 SLOAD SWAP2 MLOAD PUSH4 0x438FCFB PUSH1 0xE3 SHL DUP2 MSTORE SWAP1 SWAP3 SWAP2 PUSH1 0x1 PUSH1 0x1 PUSH1 0xA0 SHL SUB AND SWAP1 PUSH4 0x21C7E7D8 SWAP1 PUSH2 0x709 SWAP1 DUP7 SWAP1 PUSH1 0x4 ADD PUSH2 0xFA4 JUMP JUMPDEST PUSH1 0x0 PUSH1 0x40 MLOAD DUP1 DUP4 SUB DUP2 DUP7 GAS STATICCALL ISZERO DUP1 ISZERO PUSH2 0x726 JUMPI RETURNDATASIZE PUSH1 0x0 DUP1 RETURNDATACOPY RETURNDATASIZE PUSH1 0x0 REVERT JUMPDEST POP POP POP POP PUSH1 0x40 MLOAD RETURNDATASIZE PUSH1 0x0 DUP3 RETURNDATACOPY PUSH1 0x1F RETURNDATASIZE SWAP1 DUP2 ADD PUSH1 0x1F NOT AND DUP3 ADD PUSH1 0x40 MSTORE PUSH2 0x74E SWAP2 SWAP1 DUP2 ADD SWAP1 PUSH2 0x100B JUMP JUMPDEST SWAP1 POP PUSH1 0x0 DUP2 MLOAD GT PUSH2 0x797 JUMPI PUSH1 0x40 MLOAD PUSH3 0x461BCD PUSH1 0xE5 SHL DUP2 MSTORE PUSH1 0x20 PUSH1 0x4 DUP3 ADD MSTORE PUSH1 0x13 PUSH1 0x24 DUP3 ADD MSTORE PUSH19 0x1D5CD95C97DB9BDD17DC9959DA5CDD195C9959 PUSH1 0x6A SHL PUSH1 0x44 DUP3 ADD MSTORE PUSH1 0x64 ADD PUSH2 0xFE JUMP JUMPDEST PUSH1 0x3 SLOAD PUSH1 0x40 MLOAD PUSH4 0x7C9B7FDD PUSH1 0xE0 SHL DUP2 MSTORE PUSH1 0x0 SWAP2 DUP3 SWAP2 PUSH1 0x1 PUSH1 0x1 PUSH1 0xA0 SHL SUB SWAP1 SWAP2 AND SWAP1 PUSH4 0x7C9B7FDD SWAP1 PUSH2 0x7CC SWAP1 DUP7 SWAP1 PUSH1 0x4 ADD PUSH2 0xFA4 JUMP JUMPDEST PUSH1 0x0 PUSH1 0x40 MLOAD DUP1 DUP4 SUB DUP2 DUP7 GAS STATICCALL ISZERO DUP1 ISZERO PUSH2 0x7E9 JUMPI RETURNDATASIZE PUSH1 0x0 DUP1 RETURNDATACOPY RETURNDATASIZE PUSH1 0x0 REVERT JUMPDEST POP POP POP POP PUSH1 0x40 MLOAD RETURNDATASIZE PUSH1 0x0 DUP3 RETURNDATACOPY PUSH1 0x1F RETURNDATASIZE SWAP1 DUP2 ADD PUSH1 0x1F NOT AND DUP3 ADD PUSH1 0x40 MSTORE PUSH2 0x811 SWAP2 SWAP1 DUP2 ADD SWAP1 PUSH2 0x1050 JUMP JUMPDEST PUSH1 0x4 DUP9 ADD SLOAD SWAP3 SWAP6 POP SWAP4 POP POP PUSH1 0xFF AND SWAP1 POP DUP1 PUSH2 0x82A JUMPI POP DUP1 ISZERO JUMPDEST PUSH2 0x869 JUMPI PUSH1 0x40 MLOAD PUSH3 0x461BCD PUSH1 0xE5 SHL DUP2 MSTORE PUSH1 0x20 PUSH1 0x4 DUP3 ADD MSTORE PUSH1 0x10 PUSH1 0x24 DUP3 ADD MSTORE PUSH16 0x189BDD1CD7DB9BDD17D85B1B1BDDD959 PUSH1 0x82 SHL PUSH1 0x44 DUP3 ADD MSTORE PUSH1 0x64 ADD PUSH2 0xFE JUMP JUMPDEST PUSH1 0x0 DUP1 JUMPDEST DUP4 MLOAD DUP2 LT ISZERO PUSH2 0x8AB JUMPI DUP6 PUSH1 0x2 ADD SLOAD DUP5 DUP3 DUP2 MLOAD DUP2 LT PUSH2 0x88D JUMPI PUSH2 0x88D PUSH2 0xEBB JUMP JUMPDEST PUSH1 0x20 MUL PUSH1 0x20 ADD ADD MLOAD SUB PUSH2 0x8A3 JUMPI PUSH1 0x1 SWAP2 POP PUSH2 0x8AB JUMP JUMPDEST PUSH1 0x1 ADD PUSH2 0x86D JUMP JUMPDEST POP DUP1 PUSH2 0x8EF JUMPI PUSH1 0x40 MLOAD PUSH3 0x461BCD PUSH1 0xE5 SHL DUP2 MSTORE PUSH1 0x20 PUSH1 0x4 DUP3 ADD MSTORE PUSH1 0x13 PUSH1 0x24 DUP3 ADD MSTORE PUSH19 0x1B9BDD17D95E1C195C9D17DA5B97D99A595B19 PUSH1 0x6A SHL PUSH1 0x44 DUP3 ADD MSTORE PUSH1 0x64 ADD PUSH2 0xFE JUMP JUMPDEST PUSH1 0x2 DUP1 SLOAD SWAP1 DUP7 ADD SLOAD PUSH1 0x40 MLOAD PUSH4 0xD1E9149 PUSH1 0xE1 SHL DUP2 MSTORE PUSH1 0x0 SWAP3 PUSH1 0x1 PUSH1 0x1 PUSH1 0xA0 SHL SUB AND SWAP2 PUSH4 0x1A3D2292 SWAP2 PUSH2 0x925 SWAP2 DUP12 SWAP2 PUSH1 0x4 ADD PUSH2 0x116B JUMP JUMPDEST PUSH1 0x20 PUSH1 0x40 MLOAD DUP1 DUP4 SUB DUP2 DUP7 GAS STATICCALL ISZERO DUP1 ISZERO PUSH2 0x942 JUMPI RETURNDATASIZE PUSH1 0x0 DUP1 RETURNDATACOPY RETURNDATASIZE PUSH1 0x0 REVERT JUMPDEST POP POP POP POP PUSH1 0x40 MLOAD RETURNDATASIZE PUSH1 0x1F NOT PUSH1 0x1F DUP3 ADD AND DUP3 ADD DUP1 PUSH1 0x40 MSTORE POP DUP2 ADD SWAP1 PUSH2 0x966 SWAP2 SWAP1 PUSH2 0x118D JUMP JUMPDEST SWAP1 POP DUP6 PUSH1 0x3 ADD SLOAD DUP2 LT ISZERO PUSH2 0x9B1 JUMPI PUSH1 0x40 MLOAD PUSH3 0x461BCD PUSH1 0xE5 SHL DUP2 MSTORE PUSH1 0x20 PUSH1 0x4 DUP3 ADD MSTORE PUSH1 0x12 PUSH1 0x24 DUP3 ADD MSTORE PUSH18 0x72657075746174696F6E5F746F6F5F6C6F77 PUSH1 0x70 SHL PUSH1 0x44 DUP3 ADD MSTORE PUSH1 0x64 ADD PUSH2 0xFE JUMP JUMPDEST DUP6 PUSH1 0x6 ADD DUP8 PUSH1 0x40 MLOAD PUSH2 0x9C3 SWAP2 SWAP1 PUSH2 0xF0B JUMP JUMPDEST SWAP1 DUP2 MSTORE PUSH1 0x40 MLOAD SWAP1 DUP2 SWAP1 SUB PUSH1 0x20 ADD SWAP1 KECCAK256 SLOAD PUSH1 0xFF AND ISZERO PUSH2 0xA13 JUMPI PUSH1 0x40 MLOAD PUSH3 0x461BCD PUSH1 0xE5 SHL DUP2 MSTORE PUSH1 0x20 PUSH1 0x4 DUP3 ADD MSTORE PUSH1 0xD PUSH1 0x24 DUP3 ADD MSTORE PUSH13 0x185B1C9958591E57DD9BDD1959 PUSH1 0x9A SHL PUSH1 0x44 DUP3 ADD MSTORE PUSH1 0x64 ADD PUSH2 0xFE JUMP JUMPDEST PUSH1 0x1 DUP7 PUSH1 0x6 ADD DUP9 PUSH1 0x40 MLOAD PUSH2 0xA27 SWAP2 SWAP1 PUSH2 0xF0B JUMP JUMPDEST SWAP1 DUP2 MSTORE PUSH1 0x40 DUP1 MLOAD PUSH1 0x20 SWAP3 DUP2 SWAP1 SUB DUP4 ADD SWAP1 KECCAK256 DUP1 SLOAD PUSH1 0xFF NOT AND SWAP4 ISZERO ISZERO SWAP4 SWAP1 SWAP4 OR SWAP1 SWAP3 SSTORE PUSH1 0xFF DUP11 AND PUSH1 0x0 SWAP1 DUP2 MSTORE PUSH1 0x9 DUP10 ADD SWAP1 SWAP2 MSTORE SWAP1 DUP2 KECCAK256 DUP1 SLOAD PUSH1 0x1 SWAP3 SWAP1 PUSH2 0xA6C SWAP1 DUP5 SWAP1 PUSH2 0xF3D JUMP JUMPDEST SWAP3 POP POP DUP2 SWAP1 SSTORE POP DUP8 DUP7 PUSH1 0x7 ADD DUP9 PUSH1 0x40 MLOAD PUSH2 0xA86 SWAP2 SWAP1 PUSH2 0xF0B JUMP JUMPDEST SWAP1 DUP2 MSTORE PUSH1 0x40 MLOAD PUSH1 0x20 SWAP2 DUP2 SWAP1 SUB DUP3 ADD SWAP1 KECCAK256 DUP1 SLOAD PUSH1 0xFF NOT AND PUSH1 0xFF SWAP4 SWAP1 SWAP4 AND SWAP3 SWAP1 SWAP3 OR SWAP1 SWAP2 SSTORE PUSH1 0x8 DUP8 ADD DUP1 SLOAD PUSH1 0x1 DUP2 ADD DUP3 SSTORE PUSH1 0x0 SWAP2 DUP3 MSTORE SWAP2 SWAP1 KECCAK256 ADD PUSH2 0xAC8 DUP9 DUP3 PUSH2 0x11F5 JUMP JUMPDEST POP PUSH1 0xFF DUP9 AND PUSH1 0x0 SWAP1 DUP2 MSTORE PUSH1 0x9 DUP8 ADD PUSH1 0x20 MSTORE PUSH1 0x40 SWAP1 KECCAK256 SLOAD PUSH1 0x1 SUB PUSH2 0xB20 JUMPI PUSH1 0xA DUP7 ADD DUP1 SLOAD PUSH1 0x1 DUP2 ADD DUP3 SSTORE PUSH1 0x0 SWAP2 DUP3 MSTORE PUSH1 0x20 SWAP2 DUP3 SWAP1 KECCAK256 SWAP2 DUP2 DIV SWAP1 SWAP2 ADD DUP1 SLOAD PUSH1 0xFF DUP1 DUP13 AND PUSH1 0x1F SWAP1 SWAP5 AND PUSH2 0x100 EXP SWAP4 DUP5 MUL SWAP4 MUL NOT AND SWAP2 SWAP1 SWAP2 OR SWAP1 SSTORE JUMPDEST PUSH32 0xB12B0CC09155FE7E138D6DC629D9423E647CCB8ED46EFAD953A0453E6D5CE2A7 DUP10 DUP9 DUP11 PUSH1 0x40 MLOAD PUSH2 0xB53 SWAP4 SWAP3 SWAP2 SWAP1 PUSH2 0x12B4 JUMP JUMPDEST PUSH1 0x40 MLOAD DUP1 SWAP2 SUB SWAP1 LOG1 POP POP POP POP POP POP POP POP POP JUMP JUMPDEST PUSH1 0x1 DUP1 SLOAD PUSH1 0x0 SWAP2 DUP3 PUSH2 0xB77 DUP4 PUSH2 0x12E0 JUMP JUMPDEST SWAP1 SWAP2 SSTORE POP POP PUSH1 0x1 DUP1 SLOAD PUSH1 0x0 DUP2 DUP2 MSTORE PUSH1 0x20 DUP2 SWAP1 MSTORE PUSH1 0x40 SWAP1 KECCAK256 DUP2 DUP2 SSTORE SWAP2 DUP3 ADD DUP10 SWAP1 SSTORE PUSH1 0x2 DUP3 ADD DUP9 SWAP1 SSTORE PUSH1 0x3 DUP3 ADD DUP8 SWAP1 SSTORE PUSH1 0x4 DUP3 ADD DUP1 SLOAD PUSH1 0xFF NOT AND DUP7 ISZERO ISZERO OR SWAP1 SSTORE SWAP1 PUSH1 0x5 DUP2 ADD PUSH2 0xBC4 DUP6 DUP3 PUSH2 0x11F5 JUMP JUMPDEST POP PUSH1 0xB DUP2 ADD DUP1 SLOAD PUSH2 0xFFFF NOT AND PUSH2 0x101 OR SWAP1 SSTORE PUSH1 0x40 MLOAD PUSH32 0x183F3E56A09C858FDCBB19942E55EE3109804613BB598C2A8925CDA073EE85D7 SWAP1 PUSH2 0xC0A SWAP1 DUP5 SWAP1 DUP13 SWAP1 DUP11 SWAP1 PUSH2 0x12F9 JUMP JUMPDEST PUSH1 0x40 MLOAD DUP1 SWAP2 SUB SWAP1 LOG1 POP SWAP8 SWAP7 POP POP POP POP POP POP POP JUMP JUMPDEST PUSH1 0x0 PUSH1 0x20 DUP3 DUP5 SUB SLT ISZERO PUSH2 0xC30 JUMPI PUSH1 0x0 DUP1 REVERT JUMPDEST POP CALLDATALOAD SWAP2 SWAP1 POP JUMP JUMPDEST PUSH1 0x0 JUMPDEST DUP4 DUP2 LT ISZERO PUSH2 0xC52 JUMPI DUP2 DUP2 ADD MLOAD DUP4 DUP3 ADD MSTORE PUSH1 0x20 ADD PUSH2 0xC3A JUMP JUMPDEST POP POP PUSH1 0x0 SWAP2 ADD MSTORE JUMP JUMPDEST PUSH1 0x0 DUP2 MLOAD DUP1 DUP5 MSTORE PUSH2 0xC73 DUP2 PUSH1 0x20 DUP7 ADD PUSH1 0x20 DUP7 ADD PUSH2 0xC37 JUMP JUMPDEST PUSH1 0x1F ADD PUSH1 0x1F NOT AND SWAP3 SWAP1 SWAP3 ADD PUSH1 0x20 ADD SWAP3 SWAP2 POP POP JUMP JUMPDEST DUP7 DUP2 MSTORE DUP6 PUSH1 0x20 DUP3 ADD MSTORE DUP5 PUSH1 0x40 DUP3 ADD MSTORE DUP4 ISZERO ISZERO PUSH1 0x60 DUP3 ADD MSTORE PUSH1 0xC0 PUSH1 0x80 DUP3 ADD MSTORE PUSH1 0x0 PUSH2 0xCB4 PUSH1 0xC0 DUP4 ADD DUP6 PUSH2 0xC5B JUMP JUMPDEST SWAP1 POP DUP3 ISZERO ISZERO PUSH1 0xA0 DUP4 ADD MSTORE SWAP8 SWAP7 POP POP POP POP POP POP POP JUMP JUMPDEST PUSH4 0x4E487B71 PUSH1 0xE0 SHL PUSH1 0x0 MSTORE PUSH1 0x41 PUSH1 0x4 MSTORE PUSH1 0x24 PUSH1 0x0 REVERT JUMPDEST PUSH1 0x40 MLOAD PUSH1 0x1F DUP3 ADD PUSH1 0x1F NOT AND DUP2 ADD PUSH8 0xFFFFFFFFFFFFFFFF DUP2 GT DUP3 DUP3 LT OR ISZERO PUSH2 0xD08 JUMPI PUSH2 0xD08 PUSH2 0xCC9 JUMP JUMPDEST PUSH1 0x40 MSTORE SWAP2 SWAP1 POP JUMP JUMPDEST PUSH1 0x0 PUSH8 0xFFFFFFFFFFFFFFFF DUP3 GT ISZERO PUSH2 0xD2A JUMPI PUSH2 0xD2A PUSH2 0xCC9 JUMP JUMPDEST POP PUSH1 0x1F ADD PUSH1 0x1F NOT AND PUSH1 0x20 ADD SWAP1 JUMP JUMPDEST PUSH1 0x0 DUP3 PUSH1 0x1F DUP4 ADD SLT PUSH2 0xD49 JUMPI PUSH1 0x0 DUP1 REVERT JUMPDEST DUP2 CALLDATALOAD PUSH2 0xD5C PUSH2 0xD57 DUP3 PUSH2 0xD10 JUMP JUMPDEST PUSH2 0xCDF JUMP JUMPDEST DUP2 DUP2 MSTORE DUP5 PUSH1 0x20 DUP4 DUP7 ADD ADD GT ISZERO PUSH2 0xD71 JUMPI PUSH1 0x0 DUP1 REVERT JUMPDEST DUP2 PUSH1 0x20 DUP6 ADD PUSH1 0x20 DUP4 ADD CALLDATACOPY PUSH1 0x0 SWAP2 DUP2 ADD PUSH1 0x20 ADD SWAP2 SWAP1 SWAP2 MSTORE SWAP4 SWAP3 POP POP POP JUMP JUMPDEST PUSH1 0x0 DUP1 PUSH1 0x0 PUSH1 0x60 DUP5 DUP7 SUB SLT ISZERO PUSH2 0xDA3 JUMPI PUSH1 0x0 DUP1 REVERT JUMPDEST DUP4 CALLDATALOAD SWAP3 POP PUSH1 0x20 DUP5 ADD CALLDATALOAD PUSH1 0xFF DUP2 AND DUP2 EQ PUSH2 0xDBB JUMPI PUSH1 0x0 DUP1 REVERT JUMPDEST SWAP2 POP PUSH1 0x40 DUP5 ADD CALLDATALOAD PUSH8 0xFFFFFFFFFFFFFFFF DUP2 GT ISZERO PUSH2 0xDD7 JUMPI PUSH1 0x0 DUP1 REVERT JUMPDEST PUSH2 0xDE3 DUP7 DUP3 DUP8 ADD PUSH2 0xD38 JUMP JUMPDEST SWAP2 POP POP SWAP3 POP SWAP3 POP SWAP3 JUMP JUMPDEST DUP1 ISZERO ISZERO DUP2 EQ PUSH2 0xDFB JUMPI PUSH1 0x0 DUP1 REVERT JUMPDEST POP JUMP JUMPDEST PUSH1 0x0 DUP1 PUSH1 0x0 DUP1 PUSH1 0x0 DUP1 PUSH1 0xC0 DUP8 DUP10 SUB SLT ISZERO PUSH2 0xE17 JUMPI PUSH1 0x0 DUP1 REVERT JUMPDEST DUP7 CALLDATALOAD SWAP6 POP PUSH1 0x20 DUP8 ADD CALLDATALOAD SWAP5 POP PUSH1 0x40 DUP8 ADD CALLDATALOAD SWAP4 POP PUSH1 0x60 DUP8 ADD CALLDATALOAD PUSH8 0xFFFFFFFFFFFFFFFF DUP2 GT ISZERO PUSH2 0xE43 JUMPI PUSH1 0x0 DUP1 REVERT JUMPDEST PUSH2 0xE4F DUP10 DUP3 DUP11 ADD PUSH2 0xD38 JUMP JUMPDEST SWAP4 POP POP PUSH1 0x80 DUP8 ADD CALLDATALOAD PUSH2 0xE60 DUP2 PUSH2 0xDED JUMP JUMPDEST SWAP2 POP PUSH1 0xA0 DUP8 ADD CALLDATALOAD PUSH8 0xFFFFFFFFFFFFFFFF DUP2 GT ISZERO PUSH2 0xE7C JUMPI PUSH1 0x0 DUP1 REVERT JUMPDEST PUSH2 0xE88 DUP10 DUP3 DUP11 ADD PUSH2 0xD38 JUMP JUMPDEST SWAP2 POP POP SWAP3 SWAP6 POP SWAP3 SWAP6 POP SWAP3 SWAP6 JUMP JUMPDEST PUSH1 0x20 DUP1 DUP3 MSTORE PUSH1 0xC SWAP1 DUP3 ADD MSTORE PUSH12 0x1150D7DB9BDD17D95E1A5CDD PUSH1 0xA2 SHL PUSH1 0x40 DUP3 ADD MSTORE PUSH1 0x60 ADD SWAP1 JUMP JUMPDEST PUSH4 0x4E487B71 PUSH1 0xE0 SHL PUSH1 0x0 MSTORE PUSH1 0x32 PUSH1 0x4 MSTORE PUSH1 0x24 PUSH1 0x0 REVERT JUMPDEST PUSH1 0x1 DUP2 DUP2 SHR SWAP1 DUP3 AND DUP1 PUSH2 0xEE5 JUMPI PUSH1 0x7F DUP3 AND SWAP2 POP JUMPDEST PUSH1 0x20 DUP3 LT DUP2 SUB PUSH2 0xF05 JUMPI PUSH4 0x4E487B71 PUSH1 0xE0 SHL PUSH1 0x0 MSTORE PUSH1 0x22 PUSH1 0x4 MSTORE PUSH1 0x24 PUSH1 0x0 REVERT JUMPDEST POP SWAP2 SWAP1 POP JUMP JUMPDEST PUSH1 0x0 DUP3 MLOAD PUSH2 0xF1D DUP2 DUP5 PUSH1 0x20 DUP8 ADD PUSH2 0xC37 JUMP JUMPDEST SWAP2 SWAP1 SWAP2 ADD SWAP3 SWAP2 POP POP JUMP JUMPDEST PUSH4 0x4E487B71 PUSH1 0xE0 SHL PUSH1 0x0 MSTORE PUSH1 0x11 PUSH1 0x4 MSTORE PUSH1 0x24 PUSH1 0x0 REVERT JUMPDEST DUP1 DUP3 ADD DUP1 DUP3 GT ISZERO PUSH2 0xF50 JUMPI PUSH2 0xF50 PUSH2 0xF27 JUMP JUMPDEST SWAP3 SWAP2 POP POP JUMP JUMPDEST PUSH1 0x0 DUP3 PUSH2 0xF73 JUMPI PUSH4 0x4E487B71 PUSH1 0xE0 SHL PUSH1 0x0 MSTORE PUSH1 0x12 PUSH1 0x4 MSTORE PUSH1 0x24 PUSH1 0x0 REVERT JUMPDEST POP DIV SWAP1 JUMP JUMPDEST PUSH1 0x60 DUP2 MSTORE PUSH1 0x0 PUSH2 0xF8B PUSH1 0x60 DUP4 ADD DUP7 PUSH2 0xC5B JUMP JUMPDEST SWAP1 POP DUP4 PUSH1 0x20 DUP4 ADD MSTORE DUP3 PUSH1 0x0 SIGNEXTEND PUSH1 0x40 DUP4 ADD MSTORE SWAP5 SWAP4 POP POP POP POP JUMP JUMPDEST PUSH1 0x20 DUP2 MSTORE PUSH1 0x0 PUSH2 0xFB7 PUSH1 0x20 DUP4 ADD DUP5 PUSH2 0xC5B JUMP JUMPDEST SWAP4 SWAP3 POP POP POP JUMP JUMPDEST PUSH1 0x0 DUP3 PUSH1 0x1F DUP4 ADD SLT PUSH2 0xFCF JUMPI PUSH1 0x0 DUP1 REVERT JUMPDEST DUP2 MLOAD PUSH2 0xFDD PUSH2 0xD57 DUP3 PUSH2 0xD10 JUMP JUMPDEST DUP2 DUP2 MSTORE DUP5 PUSH1 0x20 DUP4 DUP7 ADD ADD GT ISZERO PUSH2 0xFF2 JUMPI PUSH1 0x0 DUP1 REVERT JUMPDEST PUSH2 0x1003 DUP3 PUSH1 0x20 DUP4 ADD PUSH1 0x20 DUP8 ADD PUSH2 0xC37 JUMP JUMPDEST SWAP5 SWAP4 POP POP POP POP JUMP JUMPDEST PUSH1 0x0 PUSH1 0x20 DUP3 DUP5 SUB SLT ISZERO PUSH2 0x101D JUMPI PUSH1 0x0 DUP1 REVERT JUMPDEST DUP2 MLOAD PUSH8 0xFFFFFFFFFFFFFFFF DUP2 GT ISZERO PUSH2 0x1034 JUMPI PUSH1 0x0 DUP1 REVERT JUMPDEST PUSH2 0x1003 DUP5 DUP3 DUP6 ADD PUSH2 0xFBE JUMP JUMPDEST DUP1 MLOAD PUSH2 0x104B DUP2 PUSH2 0xDED JUMP JUMPDEST SWAP2 SWAP1 POP JUMP JUMPDEST PUSH1 0x0 DUP1 PUSH1 0x0 DUP1 PUSH1 0x80 DUP6 DUP8 SUB SLT ISZERO PUSH2 0x1066 JUMPI PUSH1 0x0 DUP1 REVERT JUMPDEST DUP5 MLOAD PUSH8 0xFFFFFFFFFFFFFFFF DUP2 GT ISZERO PUSH2 0x107D JUMPI PUSH1 0x0 DUP1 REVERT JUMPDEST PUSH2 0x1089 DUP8 DUP3 DUP9 ADD PUSH2 0xFBE JUMP JUMPDEST SWAP5 POP POP PUSH1 0x20 DUP6 ADD MLOAD PUSH8 0xFFFFFFFFFFFFFFFF DUP2 GT ISZERO PUSH2 0x10A6 JUMPI PUSH1 0x0 DUP1 REVERT JUMPDEST DUP6 ADD PUSH1 0x1F DUP2 ADD DUP8 SGT PUSH2 0x10B7 JUMPI PUSH1 0x0 DUP1 REVERT JUMPDEST DUP1 MLOAD PUSH8 0xFFFFFFFFFFFFFFFF DUP2 GT ISZERO PUSH2 0x10D1 JUMPI PUSH2 0x10D1 PUSH2 0xCC9 JUMP JUMPDEST DUP1 PUSH1 0x5 SHL PUSH2 0x10E1 PUSH1 0x20 DUP3 ADD PUSH2 0xCDF JUMP JUMPDEST SWAP2 DUP3 MSTORE PUSH1 0x20 DUP2 DUP5 ADD DUP2 ADD SWAP3 SWAP1 DUP2 ADD SWAP1 DUP11 DUP5 GT ISZERO PUSH2 0x10FD JUMPI PUSH1 0x0 DUP1 REVERT JUMPDEST PUSH1 0x20 DUP6 ADD SWAP5 POP JUMPDEST DUP4 DUP6 LT ISZERO PUSH2 0x1123 JUMPI DUP5 MLOAD DUP1 DUP4 MSTORE PUSH1 0x20 SWAP6 DUP7 ADD SWAP6 SWAP1 SWAP4 POP SWAP1 SWAP2 ADD SWAP1 PUSH2 0x1104 JUMP JUMPDEST DUP1 SWAP8 POP POP POP POP POP POP PUSH1 0x40 DUP6 ADD MLOAD PUSH8 0xFFFFFFFFFFFFFFFF DUP2 GT ISZERO PUSH2 0x1145 JUMPI PUSH1 0x0 DUP1 REVERT JUMPDEST PUSH2 0x1151 DUP8 DUP3 DUP9 ADD PUSH2 0xFBE JUMP JUMPDEST SWAP3 POP POP PUSH2 0x1160 PUSH1 0x60 DUP7 ADD PUSH2 0x1040 JUMP JUMPDEST SWAP1 POP SWAP3 SWAP6 SWAP2 SWAP5 POP SWAP3 POP JUMP JUMPDEST PUSH1 0x40 DUP2 MSTORE PUSH1 0x0 PUSH2 0x117E PUSH1 0x40 DUP4 ADD DUP6 PUSH2 0xC5B JUMP JUMPDEST SWAP1 POP DUP3 PUSH1 0x20 DUP4 ADD MSTORE SWAP4 SWAP3 POP POP POP JUMP JUMPDEST PUSH1 0x0 PUSH1 0x20 DUP3 DUP5 SUB SLT ISZERO PUSH2 0x119F JUMPI PUSH1 0x0 DUP1 REVERT JUMPDEST POP MLOAD SWAP2 SWAP1 POP JUMP JUMPDEST PUSH1 0x1F DUP3 GT ISZERO PUSH2 0x11F0 JUMPI DUP1 PUSH1 0x0 MSTORE PUSH1 0x20 PUSH1 0x0 KECCAK256 PUSH1 0x1F DUP5 ADD PUSH1 0x5 SHR DUP2 ADD PUSH1 0x20 DUP6 LT ISZERO PUSH2 0x11CD JUMPI POP DUP1 JUMPDEST PUSH1 0x1F DUP5 ADD PUSH1 0x5 SHR DUP3 ADD SWAP2 POP JUMPDEST DUP2 DUP2 LT ISZERO PUSH2 0x11ED JUMPI PUSH1 0x0 DUP2 SSTORE PUSH1 0x1 ADD PUSH2 0x11D9 JUMP JUMPDEST POP POP JUMPDEST POP POP POP JUMP JUMPDEST DUP2 MLOAD PUSH8 0xFFFFFFFFFFFFFFFF DUP2 GT ISZERO PUSH2 0x120F JUMPI PUSH2 0x120F PUSH2 0xCC9 JUMP JUMPDEST PUSH2 0x1223 DUP2 PUSH2 0x121D DUP5 SLOAD PUSH2 0xED1 JUMP JUMPDEST DUP5 PUSH2 0x11A6 JUMP JUMPDEST PUSH1 0x20 PUSH1 0x1F DUP3 GT PUSH1 0x1 DUP2 EQ PUSH2 0x1257 JUMPI PUSH1 0x0 DUP4 ISZERO PUSH2 0x123F JUMPI POP DUP5 DUP3 ADD MLOAD JUMPDEST PUSH1 0x0 NOT PUSH1 0x3 DUP6 SWAP1 SHL SHR NOT AND PUSH1 0x1 DUP5 SWAP1 SHL OR DUP5 SSTORE PUSH2 0x11ED JUMP JUMPDEST PUSH1 0x0 DUP5 DUP2 MSTORE PUSH1 0x20 DUP2 KECCAK256 PUSH1 0x1F NOT DUP6 AND SWAP2 JUMPDEST DUP3 DUP2 LT ISZERO PUSH2 0x1287 JUMPI DUP8 DUP6 ADD MLOAD DUP3 SSTORE PUSH1 0x20 SWAP5 DUP6 ADD SWAP5 PUSH1 0x1 SWAP1 SWAP3 ADD SWAP2 ADD PUSH2 0x1267 JUMP JUMPDEST POP DUP5 DUP3 LT ISZERO PUSH2 0x12A5 JUMPI DUP7 DUP5 ADD MLOAD PUSH1 0x0 NOT PUSH1 0x3 DUP8 SWAP1 SHL PUSH1 0xF8 AND SHR NOT AND DUP2 SSTORE JUMPDEST POP POP POP POP PUSH1 0x1 SWAP1 DUP2 SHL ADD SWAP1 SSTORE POP JUMP JUMPDEST DUP4 DUP2 MSTORE PUSH1 0x60 PUSH1 0x20 DUP3 ADD MSTORE PUSH1 0x0 PUSH2 0x12CD PUSH1 0x60 DUP4 ADD DUP6 PUSH2 0xC5B JUMP JUMPDEST SWAP1 POP PUSH1 0xFF DUP4 AND PUSH1 0x40 DUP4 ADD MSTORE SWAP5 SWAP4 POP POP POP POP JUMP JUMPDEST PUSH1 0x0 PUSH1 0x1 DUP3 ADD PUSH2 0x12F2 JUMPI PUSH2 0x12F2 PUSH2 0xF27 JUMP JUMPDEST POP PUSH1 0x1 ADD SWAP1 JUMP JUMPDEST DUP4 DUP2 MSTORE DUP3 PUSH1 0x20 DUP3 ADD MSTORE PUSH1 0x60 PUSH1 0x40 DUP3 ADD MSTORE PUSH1 0x0 PUSH2 0x1318 PUSH1 0x60 DUP4 ADD DUP5 PUSH2 0xC5B JUMP JUMPDEST SWAP6 SWAP5 POP POP POP POP POP JUMP INVALID LOG2 PUSH5 0x6970667358 0x22 SLT KECCAK256 CODECOPY DUP9 LOG1 0xB4 0xF DUP13 MSIZE ADDRESS PUSH14 0xD698F0F6FB298A4CA070E610B437 0xA9 0x23 0xC2 0xEB PUSH19 0xF27B654C64736F6C634300081C003300000000 ",
  "sha1": "a17001dadeeb6a9ac98277675d69122d7d463d22",
  "source": "// SPDX-License-Identifier: MIT\npragma solidity ^0.8.0;\n\ninterface IReputationManager {\n    function updateReputation(string memory _user, uint256 _fieldId, int8 _score) external;\n    function getReputation(string memory _user, uint256 _fieldId) external view returns (uint256);\n}\n\ninterface IUserRegistry {\n    function getNickByAddress(string memory _address) external view returns (string memory);\n    function getUserInfo(string memory _nick)\n        external\n        view\n        returns (\n            string memory public_key,\n            uint256[] memory expertFields,\n            string memory additional_data,\n            bool is_bot\n        );\n}\n\ncontract ExpertCaseManager {\n    struct ExpertCase {\n        uint256 ECId;\n        uint256 itemId;\n        uint256 fieldId;\n        uint256 minReputation;\n        bool botAllowed;\n        string ECInfo;\n        mapping(string => bool) hasVoted;\n        mapping(string => uint8) voterChoices;\n        string[] voters;\n        mapping(uint8 => uint256) votes;\n        uint8[] optionsVoted; // Added to track voted options\n        bool isOpen;\n        bool exists;\n    }\n\n    mapping(uint256 => ExpertCase) private expertCases;\n    uint256 private ECIdCounter;\n\n    IReputationManager private reputationManager;\n    IUserRegistry private userRegistry;\n\n    event ExpertCaseOpened(uint256 ECId, uint256 itemId, string openedBy);\n    event VoteCast(uint256 ECId, string voter, uint8 option);\n    event ExpertCaseClosed(uint256 ECId, uint8 winningOption);\n\n    constructor(address _reputationManagerAddress, address _userRegistryAddress) {\n        reputationManager = IReputationManager(_reputationManagerAddress);\n        userRegistry = IUserRegistry(_userRegistryAddress);\n    }\n\n    function openExpertCase(\n        uint256 _itemId,\n        uint256 _fieldId,\n        uint256 _minReputation,\n        string memory _publicKey,\n        bool _botAllowed,\n        string memory _ECInfo\n    ) public returns (uint256) {\n        ECIdCounter++;\n        uint256 newECId = ECIdCounter;\n\n        ExpertCase storage ec = expertCases[newECId];\n        ec.ECId = newECId;\n        ec.itemId = _itemId;\n        ec.fieldId = _fieldId;\n        ec.minReputation = _minReputation;\n        ec.botAllowed = _botAllowed;\n        ec.ECInfo = _ECInfo;\n        ec.isOpen = true;\n        ec.exists = true;\n\n        emit ExpertCaseOpened(newECId, _itemId, _publicKey);\n\n        return newECId;\n    }\n\n    function castVote(\n        uint256 _ECId,\n        uint8 _option,\n        string memory _publicKey\n    ) public {\n        require(expertCases[_ECId].exists, \"EC_not_exist\");\n        require(expertCases[_ECId].isOpen, \"EC_closed\");\n\n        ExpertCase storage ec = expertCases[_ECId];\n\n        // Verify voter registration\n        string memory voterNick = userRegistry.getNickByAddress(_publicKey);\n        require(bytes(voterNick).length > 0, \"user_not_registered\");\n\n        // Get user info\n        (\n            ,\n            uint256[] memory expertFields,\n            ,\n            bool isBot\n        ) = userRegistry.getUserInfo(voterNick);\n\n        // Check if bots are allowed\n        require(ec.botAllowed || !isBot, \"bots_not_allowed\");\n\n        // Check if user is an expert in the required field\n        bool isExpert = false;\n        for (uint256 i = 0; i < expertFields.length; i++) {\n            if (expertFields[i] == ec.fieldId) {\n                isExpert = true;\n                break;\n            }\n        }\n        require(isExpert, \"not_expert_in_field\");\n\n        // Check user's reputation\n        uint256 userReputation = reputationManager.getReputation(_publicKey, ec.fieldId);\n        require(userReputation >= ec.minReputation, \"reputation_too_low\");\n\n        // Check if user has already voted\n        require(!ec.hasVoted[_publicKey], \"already_voted\");\n\n        // Record the vote\n        ec.hasVoted[_publicKey] = true;\n        ec.votes[_option] += 1;\n        ec.voterChoices[_publicKey] = _option;\n        ec.voters.push(_publicKey);\n\n        // Add option to optionsVoted if it's the first vote for that option\n        if (ec.votes[_option] == 1) {\n            ec.optionsVoted.push(_option);\n        }\n\n        emit VoteCast(_ECId, _publicKey, _option);\n    }\n\n    function closeExpertCase(uint256 _ECId) public {\n        require(expertCases[_ECId].exists, \"EC_not_exist\");\n        require(expertCases[_ECId].isOpen, \"EC_already_closed\");\n\n        ExpertCase storage ec = expertCases[_ECId];\n        ec.isOpen = false;\n\n        // Determine the winning option\n        uint8 winningOption;\n        uint256 maxVotes = 0;\n\n        for (uint256 i = 0; i < ec.optionsVoted.length; i++) {\n            uint8 option = ec.optionsVoted[i];\n            uint256 votesForOption = ec.votes[option];\n            if (votesForOption > maxVotes) {\n                maxVotes = votesForOption;\n                winningOption = option;\n            }\n        }\n\n        uint256 winningVotersCount = 0;\n        for (uint256 i = 0; i < ec.voters.length; i++) {\n            string memory voter = ec.voters[i];\n            if (ec.voterChoices[voter] == winningOption) {\n                winningVotersCount += 1;\n            }\n        }\n\n        int256 reputationIncrementTemp = int256(ec.voters.length / winningVotersCount);\n        int8 reputationIncrement = reputationIncrementTemp > 10 ? int8(10) : int8(reputationIncrementTemp);\n\n        // Update reputation for voters\n        for (uint256 i = 0; i < ec.voters.length; i++) {\n            string memory voter = ec.voters[i];\n            uint8 voterOption = ec.voterChoices[voter];\n            uint256 fieldId = ec.fieldId;\n\n            if (voterOption == winningOption) {\n                reputationManager.updateReputation(voter, fieldId, reputationIncrement);\n            }\n            else {\n                reputationManager.updateReputation(voter, fieldId, -1);\n            }\n        }\n\n        emit ExpertCaseClosed(_ECId, winningOption);\n    }\n\n    function getExpertCase(uint256 _ECId)\n        public\n        view\n        returns (\n            uint256 itemId,\n            uint256 fieldId,\n            uint256 minReputation,\n            bool botAllowed,\n            string memory ECInfo,\n            bool isOpen\n        )\n    {\n        require(expertCases[_ECId].exists, \"EC_not_exist\");\n        ExpertCase storage ec = expertCases[_ECId];\n        return (\n            ec.itemId,\n            ec.fieldId,\n            ec.minReputation,\n            ec.botAllowed,\n            ec.ECInfo,\n            ec.isOpen\n        );\n    }\n}\n",
  "sourcePath": "contracts/ExpertCaseManager.sol",
  "type": "contract"
}