{
  "abi": [
    {
      "anonymous": false,
      "inputs": [
        {
          "indexed": false,
          "internalType": "string",
          "name": "user",
          "type": "string"
        },
        {
          "indexed": true,
          "internalType": "uint256",
          "name": "fieldId",
          "type": "uint256"
        },
        {
          "indexed": false,
          "internalType": "int8",
          "name": "score",
          "type": "int8"
        }
      ],
      "name": "ReputationUpdated",
      "type": "event"
    },
    {
      "inputs": [],
      "name": "MAX_RECENT_SCORES",
      "outputs": [
        {
          "internalType": "uint256",
          "name": "",
          "type": "uint256"
        }
      ],
      "stateMutability": "view",
      "type": "function"
    },
    {
      "inputs": [
        {
          "internalType": "string",
          "name": "_user",
          "type": "string"
        },
        {
          "internalType": "uint256",
          "name": "_fieldId",
          "type": "uint256"
        }
      ],
      "name": "getReputation",
      "outputs": [
        {
          "internalType": "int256",
          "name": "sumRecentScores",
          "type": "int256"
        }
      ],
      "stateMutability": "view",
      "type": "function"
    },
    {
      "inputs": [
        {
          "internalType": "string",
          "name": "_user",
          "type": "string"
        },
        {
          "internalType": "uint256",
          "name": "_fieldId",
          "type": "uint256"
        },
        {
          "internalType": "int8",
          "name": "_score",
          "type": "int8"
        }
      ],
      "name": "updateReputation",
      "outputs": [],
      "stateMutability": "nonpayable",
      "type": "function"
    }
  ],
  "bytecode": "6080604052348015600f57600080fd5b506104978061001f6000396000f3fe608060405234801561001057600080fd5b50600436106100415760003560e01c80631a3d22921461004657806355aeb22f1461006b578063e08240f714610073575b600080fd5b6100596100543660046102c3565b610088565b60405190815260200160405180910390f35b610059606481565b610086610081366004610308565b610117565b005b60008060008460405161009b919061038e565b908152602001604051809103902060008481526020019081526020016000209050600060648260010154116100d45781600101546100d7565b60645b90506000925060005b8181101561010e576000818152600284016020526040812054610104910b856103c0565b93506001016100e0565b50505092915050565b60008084604051610128919061038e565b9081526020016040518091039020600084815260200190815260200160002090508160000b81600001600082825461016091906103c0565b90915550506001818101805460009061017a9084906103e8565b9250508190555081816002016000606484600301546101999190610401565b815260200190815260200160002060006101000a81548160ff021916908360000b60ff16021790555060018160030160008282546101d791906103e8565b92505081905550827fe9c5ff185c8f467585d402c5fc07c13de428d817f49e457ffc4a3d6f704f66a28584604051610210929190610423565b60405180910390a250505050565b634e487b7160e01b600052604160045260246000fd5b600082601f83011261024557600080fd5b813567ffffffffffffffff81111561025f5761025f61021e565b604051601f8201601f19908116603f0116810167ffffffffffffffff8111828210171561028e5761028e61021e565b6040528181528382016020018510156102a657600080fd5b816020850160208301376000918101602001919091529392505050565b600080604083850312156102d657600080fd5b823567ffffffffffffffff8111156102ed57600080fd5b6102f985828601610234565b95602094909401359450505050565b60008060006060848603121561031d57600080fd5b833567ffffffffffffffff81111561033457600080fd5b61034086828701610234565b935050602084013591506040840135600081900b811461035f57600080fd5b809150509250925092565b60005b8381101561038557818101518382015260200161036d565b50506000910152565b600082516103a081846020870161036a565b9190910192915050565b634e487b7160e01b600052601160045260246000fd5b80820182811260008312801582168215821617156103e0576103e06103aa565b505092915050565b808201808211156103fb576103fb6103aa565b92915050565b60008261041e57634e487b7160e01b600052601260045260246000fd5b500690565b604081526000835180604084015261044281606085016020880161036a565b60009390930b602083015250601f91909101601f19160160600191905056fea26469706673582212201798645d603b743c6b395456a41d34936fea43f1a0752a2c9d7b8d0524ebefc864736f6c634300081c0033",
  "bytecodeSha1": "5d6db86cc42ccfcd34bc143e329fd8a9755e212d",
  "compiler": {
    "evm_version": "istanbul",
    "optimizer": {
      "enabled": true,
      "runs": 200
    },
    "version": "0.8.28+commit.7893614a"
  },
  "contractName": "ReputationManager",
  "language": "Solidity",
  "natspec": {
    "kind": "dev",
    "methods": {},
    "version": 1
  },
  "opcodes": "PUSH1 0x80 PUSH1 0x40 MSTORE CALLVALUE DUP1 ISZERO PUSH2 0x10 JUMPI PUSH1 0x0 DUP1 REVERT JUMPDEST POP PUSH1 0x4 CALLDATASIZE LT PUSH2 0x41 JUMPI PUSH1 0x0 CALLDATALOAD PUSH1 0xE0 SHR DUP1 PUSH4 0x1A3D2292 EQ PUSH2 0x46 JUMPI DUP1 PUSH4 0x55AEB22F EQ PUSH2 0x6B JUMPI DUP1 PUSH4 0xE08240F7 EQ PUSH2 0x73 JUMPI JUMPDEST PUSH1 0x0 DUP1 REVERT JUMPDEST PUSH2 0x59 PUSH2 0x54 CALLDATASIZE PUSH1 0x4 PUSH2 0x2C3 JUMP JUMPDEST PUSH2 0x88 JUMP JUMPDEST PUSH1 0x40 MLOAD SWAP1 DUP2 MSTORE PUSH1 0x20 ADD PUSH1 0x40 MLOAD DUP1 SWAP2 SUB SWAP1 RETURN JUMPDEST PUSH2 0x59 PUSH1 0x64 DUP2 JUMP JUMPDEST PUSH2 0x86 PUSH2 0x81 CALLDATASIZE PUSH1 0x4 PUSH2 0x308 JUMP JUMPDEST PUSH2 0x117 JUMP JUMPDEST STOP JUMPDEST PUSH1 0x0 DUP1 PUSH1 0x0 DUP5 PUSH1 0x40 MLOAD PUSH2 0x9B SWAP2 SWAP1 PUSH2 0x38E JUMP JUMPDEST SWAP1 DUP2 MSTORE PUSH1 0x20 ADD PUSH1 0x40 MLOAD DUP1 SWAP2 SUB SWAP1 KECCAK256 PUSH1 0x0 DUP5 DUP2 MSTORE PUSH1 0x20 ADD SWAP1 DUP2 MSTORE PUSH1 0x20 ADD PUSH1 0x0 KECCAK256 SWAP1 POP PUSH1 0x0 PUSH1 0x64 DUP3 PUSH1 0x1 ADD SLOAD GT PUSH2 0xD4 JUMPI DUP2 PUSH1 0x1 ADD SLOAD PUSH2 0xD7 JUMP JUMPDEST PUSH1 0x64 JUMPDEST SWAP1 POP PUSH1 0x0 SWAP3 POP PUSH1 0x0 JUMPDEST DUP2 DUP2 LT ISZERO PUSH2 0x10E JUMPI PUSH1 0x0 DUP2 DUP2 MSTORE PUSH1 0x2 DUP5 ADD PUSH1 0x20 MSTORE PUSH1 0x40 DUP2 KECCAK256 SLOAD PUSH2 0x104 SWAP2 SIGNEXTEND DUP6 PUSH2 0x3C0 JUMP JUMPDEST SWAP4 POP PUSH1 0x1 ADD PUSH2 0xE0 JUMP JUMPDEST POP POP POP SWAP3 SWAP2 POP POP JUMP JUMPDEST PUSH1 0x0 DUP1 DUP5 PUSH1 0x40 MLOAD PUSH2 0x128 SWAP2 SWAP1 PUSH2 0x38E JUMP JUMPDEST SWAP1 DUP2 MSTORE PUSH1 0x20 ADD PUSH1 0x40 MLOAD DUP1 SWAP2 SUB SWAP1 KECCAK256 PUSH1 0x0 DUP5 DUP2 MSTORE PUSH1 0x20 ADD SWAP1 DUP2 MSTORE PUSH1 0x20 ADD PUSH1 0x0 KECCAK256 SWAP1 POP DUP2 PUSH1 0x0 SIGNEXTEND DUP2 PUSH1 0x0 ADD PUSH1 0x0 DUP3 DUP3 SLOAD PUSH2 0x160 SWAP2 SWAP1 PUSH2 0x3C0 JUMP JUMPDEST SWAP1 SWAP2 SSTORE POP POP PUSH1 0x1 DUP2 DUP2 ADD DUP1 SLOAD PUSH1 0x0 SWAP1 PUSH2 0x17A SWAP1 DUP5 SWAP1 PUSH2 0x3E8 JUMP JUMPDEST SWAP3 POP POP DUP2 SWAP1 SSTORE POP DUP2 DUP2 PUSH1 0x2 ADD PUSH1 0x0 PUSH1 0x64 DUP5 PUSH1 0x3 ADD SLOAD PUSH2 0x199 SWAP2 SWAP1 PUSH2 0x401 JUMP JUMPDEST DUP2 MSTORE PUSH1 0x20 ADD SWAP1 DUP2 MSTORE PUSH1 0x20 ADD PUSH1 0x0 KECCAK256 PUSH1 0x0 PUSH2 0x100 EXP DUP2 SLOAD DUP2 PUSH1 0xFF MUL NOT AND SWAP1 DUP4 PUSH1 0x0 SIGNEXTEND PUSH1 0xFF AND MUL OR SWAP1 SSTORE POP PUSH1 0x1 DUP2 PUSH1 0x3 ADD PUSH1 0x0 DUP3 DUP3 SLOAD PUSH2 0x1D7 SWAP2 SWAP1 PUSH2 0x3E8 JUMP JUMPDEST SWAP3 POP POP DUP2 SWAP1 SSTORE POP DUP3 PUSH32 0xE9C5FF185C8F467585D402C5FC07C13DE428D817F49E457FFC4A3D6F704F66A2 DUP6 DUP5 PUSH1 0x40 MLOAD PUSH2 0x210 SWAP3 SWAP2 SWAP1 PUSH2 0x423 JUMP JUMPDEST PUSH1 0x40 MLOAD DUP1 SWAP2 SUB SWAP1 LOG2 POP POP POP POP JUMP JUMPDEST PUSH4 0x4E487B71 PUSH1 0xE0 SHL PUSH1 0x0 MSTORE PUSH1 0x41 PUSH1 0x4 MSTORE PUSH1 0x24 PUSH1 0x0 REVERT JUMPDEST PUSH1 0x0 DUP3 PUSH1 0x1F DUP4 ADD SLT PUSH2 0x245 JUMPI PUSH1 0x0 DUP1 REVERT JUMPDEST DUP2 CALLDATALOAD PUSH8 0xFFFFFFFFFFFFFFFF DUP2 GT ISZERO PUSH2 0x25F JUMPI PUSH2 0x25F PUSH2 0x21E JUMP JUMPDEST PUSH1 0x40 MLOAD PUSH1 0x1F DUP3 ADD PUSH1 0x1F NOT SWAP1 DUP2 AND PUSH1 0x3F ADD AND DUP2 ADD PUSH8 0xFFFFFFFFFFFFFFFF DUP2 GT DUP3 DUP3 LT OR ISZERO PUSH2 0x28E JUMPI PUSH2 0x28E PUSH2 0x21E JUMP JUMPDEST PUSH1 0x40 MSTORE DUP2 DUP2 MSTORE DUP4 DUP3 ADD PUSH1 0x20 ADD DUP6 LT ISZERO PUSH2 0x2A6 JUMPI PUSH1 0x0 DUP1 REVERT JUMPDEST DUP2 PUSH1 0x20 DUP6 ADD PUSH1 0x20 DUP4 ADD CALLDATACOPY PUSH1 0x0 SWAP2 DUP2 ADD PUSH1 0x20 ADD SWAP2 SWAP1 SWAP2 MSTORE SWAP4 SWAP3 POP POP POP JUMP JUMPDEST PUSH1 0x0 DUP1 PUSH1 0x40 DUP4 DUP6 SUB SLT ISZERO PUSH2 0x2D6 JUMPI PUSH1 0x0 DUP1 REVERT JUMPDEST DUP3 CALLDATALOAD PUSH8 0xFFFFFFFFFFFFFFFF DUP2 GT ISZERO PUSH2 0x2ED JUMPI PUSH1 0x0 DUP1 REVERT JUMPDEST PUSH2 0x2F9 DUP6 DUP3 DUP7 ADD PUSH2 0x234 JUMP JUMPDEST SWAP6 PUSH1 0x20 SWAP5 SWAP1 SWAP5 ADD CALLDATALOAD SWAP5 POP POP POP POP JUMP JUMPDEST PUSH1 0x0 DUP1 PUSH1 0x0 PUSH1 0x60 DUP5 DUP7 SUB SLT ISZERO PUSH2 0x31D JUMPI PUSH1 0x0 DUP1 REVERT JUMPDEST DUP4 CALLDATALOAD PUSH8 0xFFFFFFFFFFFFFFFF DUP2 GT ISZERO PUSH2 0x334 JUMPI PUSH1 0x0 DUP1 REVERT JUMPDEST PUSH2 0x340 DUP7 DUP3 DUP8 ADD PUSH2 0x234 JUMP JUMPDEST SWAP4 POP POP PUSH1 0x20 DUP5 ADD CALLDATALOAD SWAP2 POP PUSH1 0x40 DUP5 ADD CALLDATALOAD PUSH1 0x0 DUP2 SWAP1 SIGNEXTEND DUP2 EQ PUSH2 0x35F JUMPI PUSH1 0x0 DUP1 REVERT JUMPDEST DUP1 SWAP2 POP POP SWAP3 POP SWAP3 POP SWAP3 JUMP JUMPDEST PUSH1 0x0 JUMPDEST DUP4 DUP2 LT ISZERO PUSH2 0x385 JUMPI DUP2 DUP2 ADD MLOAD DUP4 DUP3 ADD MSTORE PUSH1 0x20 ADD PUSH2 0x36D JUMP JUMPDEST POP POP PUSH1 0x0 SWAP2 ADD MSTORE JUMP JUMPDEST PUSH1 0x0 DUP3 MLOAD PUSH2 0x3A0 DUP2 DUP5 PUSH1 0x20 DUP8 ADD PUSH2 0x36A JUMP JUMPDEST SWAP2 SWAP1 SWAP2 ADD SWAP3 SWAP2 POP POP JUMP JUMPDEST PUSH4 0x4E487B71 PUSH1 0xE0 SHL PUSH1 0x0 MSTORE PUSH1 0x11 PUSH1 0x4 MSTORE PUSH1 0x24 PUSH1 0x0 REVERT JUMPDEST DUP1 DUP3 ADD DUP3 DUP2 SLT PUSH1 0x0 DUP4 SLT DUP1 ISZERO DUP3 AND DUP3 ISZERO DUP3 AND OR ISZERO PUSH2 0x3E0 JUMPI PUSH2 0x3E0 PUSH2 0x3AA JUMP JUMPDEST POP POP SWAP3 SWAP2 POP POP JUMP JUMPDEST DUP1 DUP3 ADD DUP1 DUP3 GT ISZERO PUSH2 0x3FB JUMPI PUSH2 0x3FB PUSH2 0x3AA JUMP JUMPDEST SWAP3 SWAP2 POP POP JUMP JUMPDEST PUSH1 0x0 DUP3 PUSH2 0x41E JUMPI PUSH4 0x4E487B71 PUSH1 0xE0 SHL PUSH1 0x0 MSTORE PUSH1 0x12 PUSH1 0x4 MSTORE PUSH1 0x24 PUSH1 0x0 REVERT JUMPDEST POP MOD SWAP1 JUMP JUMPDEST PUSH1 0x40 DUP2 MSTORE PUSH1 0x0 DUP4 MLOAD DUP1 PUSH1 0x40 DUP5 ADD MSTORE PUSH2 0x442 DUP2 PUSH1 0x60 DUP6 ADD PUSH1 0x20 DUP9 ADD PUSH2 0x36A JUMP JUMPDEST PUSH1 0x0 SWAP4 SWAP1 SWAP4 SIGNEXTEND PUSH1 0x20 DUP4 ADD MSTORE POP PUSH1 0x1F SWAP2 SWAP1 SWAP2 ADD PUSH1 0x1F NOT AND ADD PUSH1 0x60 ADD SWAP2 SWAP1 POP JUMP INVALID LOG2 PUSH5 0x6970667358 0x22 SLT KECCAK256 OR SWAP9 PUSH5 0x5D603B743C PUSH12 0x395456A41D34936FEA43F1A0 PUSH22 0x2A2C9D7B8D0524EBEFC864736F6C634300081C003300 ",
  "sha1": "1b3926b54d9736138c13b50d47884b0d299f1f5f",
  "source": "// SPDX-License-Identifier: MIT\npragma solidity ^0.8.0;\n\ncontract ReputationManager {\n    struct Reputation {\n        int256 totalScore;\n        uint256 totalCases;\n        mapping(uint256 => int8) recentScores;\n        uint256 recentIndex;\n    }\n\n    // Use public key (string) to identify users, and fieldId (uint256) for reputation within fields\n    mapping(string => mapping(uint256 => Reputation)) private reputations;\n\n    uint256 public constant MAX_RECENT_SCORES = 100;\n\n    event ReputationUpdated(string user, uint256 indexed fieldId, int8 score);\n\n    // Update the reputation of a user identified by their public key\n    function updateReputation(\n        string memory _user,  // Public key as string\n        uint256 _fieldId,          // Field ID to track reputation in a specific area\n        int8 _score                // Score to be added (positive or negative)\n    ) external {\n        Reputation storage rep = reputations[_user][_fieldId];\n\n        // Update the total score and total cases\n        rep.totalScore += _score;\n        rep.totalCases += 1;\n\n        // Add the score to the recent scores array with circular indexing\n        rep.recentScores[rep.recentIndex % MAX_RECENT_SCORES] = _score;\n        rep.recentIndex += 1;\n\n        // Emit the ReputationUpdated event with public key and field ID\n        emit ReputationUpdated(_user, _fieldId, _score);\n    }\n\n    // Get the sum of recent reputation scores for a user in a specific field\n    function getReputation(string memory _user, uint256 _fieldId)\n        external\n        view\n        returns (int256 sumRecentScores)\n    {\n        Reputation storage rep = reputations[_user][_fieldId];\n\n        // Determine the number of recent scores to sum (based on totalCases vs. MAX_RECENT_SCORES)\n        uint256 scoresCount = rep.totalCases > MAX_RECENT_SCORES ? MAX_RECENT_SCORES : rep.totalCases;\n        sumRecentScores = 0;\n\n        // Sum up the recent scores\n        for (uint256 i = 0; i < scoresCount; i++) {\n            sumRecentScores += rep.recentScores[i];\n        }\n    }\n}\n",
  "sourcePath": "contracts/ReputationManager.sol",
  "type": "contract"
}