{"bytecode":"6080604052348015600f57600080fd5b50610b808061001f6000396000f3fe608060405234801561001057600080fd5b506004361061004c5760003560e01c8063037a93d71461005157806321c7e7d8146100665780637c9b7fdd1461008f5780639ef1d46f146100b2575b600080fd5b61006461005f366004610787565b6100c5565b005b6100796100743660046107cc565b610222565b6040516100869190610859565b60405180910390f35b6100a261009d3660046107cc565b6102d2565b6040516100869493929190610873565b6100796100c03660046108ea565b6104fa565b6000826040516100d59190610996565b9081526040519081900360200190206005015460ff610100909104166101335760405162461bcd60e51b815260206004820152600e60248201526d1d5cd95c97db9bdd17d95e1a5cdd60921b60448201526064015b60405180910390fd5b600080836040516101449190610996565b908152604080516020928190038301902060008581526003820190935291205490915060ff16156101ad5760405162461bcd60e51b8152602060048201526013602482015272199a595b1917d85b1c9958591e57d859191959606a1b604482015260640161012a565b600281018054600181810183556000928352602080842090920185905584835260038401909152604091829020805460ff19169091179055517fe8c8d70a47cfd9e36447bfef4703abc190a6ea8608550a2c7fd4f0308e1365a99061021590859085906109b2565b60405180910390a1505050565b60606001826040516102349190610996565b9081526020016040518091039020805461024d906109d4565b80601f0160208091040260200160405190810160405280929190818152602001828054610279906109d4565b80156102c65780601f1061029b576101008083540402835291602001916102c6565b820191906000526020600020905b8154815290600101906020018083116102a957829003601f168201915b50505050509050919050565b6060806060600080856040516102e89190610996565b9081526040519081900360200190206005015460ff610100909104166103415760405162461bcd60e51b815260206004820152600e60248201526d1d5cd95c97db9bdd17d95e1a5cdd60921b604482015260640161012a565b600080866040516103529190610996565b908152602001604051809103902090508060010181600201826004018360050160009054906101000a900460ff1683805461038c906109d4565b80601f01602080910402602001604051908101604052809291908181526020018280546103b8906109d4565b80156104055780601f106103da57610100808354040283529160200191610405565b820191906000526020600020905b8154815290600101906020018083116103e857829003601f168201915b505050505093508280548060200260200160405190810160405280929190818152602001828054801561045757602002820191906000526020600020905b815481526020019060010190808311610443575b5050505050925081805461046a906109d4565b80601f0160208091040260200160405190810160405280929190818152602001828054610496906109d4565b80156104e35780601f106104b8576101008083540402835291602001916104e3565b820191906000526020600020905b8154815290600101906020018083116104c657829003601f168201915b505050505091509450945094509450509193509193565b606060008560405161050c9190610996565b9081526040519081900360200190206005015460ff610100909104161561056a5760405162461bcd60e51b81526020600482015260126024820152713734b1b5afb0b63932b0b23cafba30b5b2b760711b604482015260640161012a565b60018460405161057a9190610996565b90815260200160405180910390208054610593906109d4565b1590506105e25760405162461bcd60e51b815260206004820152601a60248201527f616464726573735f616c72656164795f72656769737465726564000000000000604482015260640161012a565b600080866040516105f39190610996565b90815260405190819003602001902090508061060f8782610a5d565b506001810161061e8682610a5d565b506004810161062d8582610a5d565b5060058101805461ff00198515151661ffff1990911617610100179055604051869060019061065d908890610996565b908152602001604051809103902090816106779190610a5d565b507f996d7324173609959370942b1ee1b743dc623b3d50459e66c1d55df55e5a9f3786866040516106a9929190610b1c565b60405180910390a1505060408051808201909152601081526f72656769737465725f7375636365737360801b6020820152949350505050565b634e487b7160e01b600052604160045260246000fd5b600082601f83011261070957600080fd5b813567ffffffffffffffff811115610723576107236106e2565b604051601f8201601f19908116603f0116810167ffffffffffffffff81118282101715610752576107526106e2565b60405281815283820160200185101561076a57600080fd5b816020850160208301376000918101602001919091529392505050565b6000806040838503121561079a57600080fd5b823567ffffffffffffffff8111156107b157600080fd5b6107bd858286016106f8565b95602094909401359450505050565b6000602082840312156107de57600080fd5b813567ffffffffffffffff8111156107f557600080fd5b610801848285016106f8565b949350505050565b60005b8381101561082457818101518382015260200161080c565b50506000910152565b60008151808452610845816020860160208601610809565b601f01601f19169290920160200192915050565b60208152600061086c602083018461082d565b9392505050565b608081526000610886608083018761082d565b828103602084015280865180835260208301915060208801925060005b818110156108c15783518352602093840193909201916001016108a3565b505083810360408501526108d5818761082d565b92505050821515606083015295945050505050565b6000806000806080858703121561090057600080fd5b843567ffffffffffffffff81111561091757600080fd5b610923878288016106f8565b945050602085013567ffffffffffffffff81111561094057600080fd5b61094c878288016106f8565b935050604085013567ffffffffffffffff81111561096957600080fd5b610975878288016106f8565b9250506060850135801515811461098b57600080fd5b939692955090935050565b600082516109a8818460208701610809565b9190910192915050565b6040815260006109c5604083018561082d565b90508260208301529392505050565b600181811c908216806109e857607f821691505b602082108103610a0857634e487b7160e01b600052602260045260246000fd5b50919050565b601f821115610a5857806000526020600020601f840160051c81016020851015610a355750805b601f840160051c820191505b81811015610a555760008155600101610a41565b50505b505050565b815167ffffffffffffffff811115610a7757610a776106e2565b610a8b81610a8584546109d4565b84610a0e565b6020601f821160018114610abf5760008315610aa75750848201515b600019600385901b1c1916600184901b178455610a55565b600084815260208120601f198516915b82811015610aef5787850151825560209485019460019092019101610acf565b5084821015610b0d5786840151600019600387901b60f8161c191681555b50505050600190811b01905550565b604081526000610b2f604083018561082d565b8281036020840152610b41818561082d565b9594505050505056fea2646970667358221220e2c95f88783366b9dafd2d82ae9a7efea81527f5737d60b84e7d22e69aac499c64736f6c634300081c0033","bytecodeSha1":"09d888cfbd90b01085ea481d413a1a7777975fae","type":"contract","abi":[{"anonymous":false,"inputs":[{"indexed":false,"internalType":"string","name":"nick","type":"string"},{"indexed":false,"internalType":"uint256","name":"fieldId","type":"uint256"}],"name":"ExpertFieldAdded","type":"event"},{"anonymous":false,"inputs":[{"indexed":false,"internalType":"string","name":"nick","type":"string"},{"indexed":false,"internalType":"string","name":"public_key","type":"string"}],"name":"UserRegistered","type":"event"},{"inputs":[{"internalType":"string","name":"_nick","type":"string"},{"internalType":"uint256","name":"_fieldId","type":"uint256"}],"name":"addExpertField","outputs":[],"stateMutability":"nonpayable","type":"function"},{"inputs":[{"internalType":"string","name":"_address","type":"string"}],"name":"getNickByAddress","outputs":[{"internalType":"string","name":"","type":"string"}],"stateMutability":"view","type":"function"},{"inputs":[{"internalType":"string","name":"_nick","type":"string"}],"name":"getUserInfo","outputs":[{"internalType":"string","name":"public_key","type":"string"},{"internalType":"uint256[]","name":"expertFields","type":"uint256[]"},{"internalType":"string","name":"additional_data","type":"string"},{"internalType":"bool","name":"is_bot","type":"bool"}],"stateMutability":"view","type":"function"},{"inputs":[{"internalType":"string","name":"_nick","type":"string"},{"internalType":"string","name":"_publicKey","type":"string"},{"internalType":"string","name":"_additionalData","type":"string"},{"internalType":"bool","name":"_isBot","type":"bool"}],"name":"registerUser","outputs":[{"internalType":"string","name":"","type":"string"}],"stateMutability":"nonpayable","type":"function"}],"compiler":{"version":"0.8.28+commit.7893614a","evm_version":"istanbul","optimizer":{"enabled":true,"runs":200}},"contractName":"UserRegistry","language":"Solidity","natspec":{"methods":{},"kind":"dev","version":1},"opcodes":"PUSH1 0x80 PUSH1 0x40 MSTORE CALLVALUE DUP1 ISZERO PUSH2 0x10 JUMPI PUSH1 0x0 DUP1 REVERT JUMPDEST POP PUSH1 0x4 CALLDATASIZE LT PUSH2 0x4C JUMPI PUSH1 0x0 CALLDATALOAD PUSH1 0xE0 SHR DUP1 PUSH4 0x37A93D7 EQ PUSH2 0x51 JUMPI DUP1 PUSH4 0x21C7E7D8 EQ PUSH2 0x66 JUMPI DUP1 PUSH4 0x7C9B7FDD EQ PUSH2 0x8F JUMPI DUP1 PUSH4 0x9EF1D46F EQ PUSH2 0xB2 JUMPI JUMPDEST PUSH1 0x0 DUP1 REVERT JUMPDEST PUSH2 0x64 PUSH2 0x5F CALLDATASIZE PUSH1 0x4 PUSH2 0x787 JUMP JUMPDEST PUSH2 0xC5 JUMP JUMPDEST STOP JUMPDEST PUSH2 0x79 PUSH2 0x74 CALLDATASIZE PUSH1 0x4 PUSH2 0x7CC JUMP JUMPDEST PUSH2 0x222 JUMP JUMPDEST PUSH1 0x40 MLOAD PUSH2 0x86 SWAP2 SWAP1 PUSH2 0x859 JUMP JUMPDEST PUSH1 0x40 MLOAD DUP1 SWAP2 SUB SWAP1 RETURN JUMPDEST PUSH2 0xA2 PUSH2 0x9D CALLDATASIZE PUSH1 0x4 PUSH2 0x7CC JUMP JUMPDEST PUSH2 0x2D2 JUMP JUMPDEST PUSH1 0x40 MLOAD PUSH2 0x86 SWAP5 SWAP4 SWAP3 SWAP2 SWAP1 PUSH2 0x873 JUMP JUMPDEST PUSH2 0x79 PUSH2 0xC0 CALLDATASIZE PUSH1 0x4 PUSH2 0x8EA JUMP JUMPDEST PUSH2 0x4FA JUMP JUMPDEST PUSH1 0x0 DUP3 PUSH1 0x40 MLOAD PUSH2 0xD5 SWAP2 SWAP1 PUSH2 0x996 JUMP JUMPDEST SWAP1 DUP2 MSTORE PUSH1 0x40 MLOAD SWAP1 DUP2 SWAP1 SUB PUSH1 0x20 ADD SWAP1 KECCAK256 PUSH1 0x5 ADD SLOAD PUSH1 0xFF PUSH2 0x100 SWAP1 SWAP2 DIV AND PUSH2 0x133 JUMPI PUSH1 0x40 MLOAD PUSH3 0x461BCD PUSH1 0xE5 SHL DUP2 MSTORE PUSH1 0x20 PUSH1 0x4 DUP3 ADD MSTORE PUSH1 0xE PUSH1 0x24 DUP3 ADD MSTORE PUSH14 0x1D5CD95C97DB9BDD17D95E1A5CDD PUSH1 0x92 SHL PUSH1 0x44 DUP3 ADD MSTORE PUSH1 0x64 ADD JUMPDEST PUSH1 0x40 MLOAD DUP1 SWAP2 SUB SWAP1 REVERT JUMPDEST PUSH1 0x0 DUP1 DUP4 PUSH1 0x40 MLOAD PUSH2 0x144 SWAP2 SWAP1 PUSH2 0x996 JUMP JUMPDEST SWAP1 DUP2 MSTORE PUSH1 0x40 DUP1 MLOAD PUSH1 0x20 SWAP3 DUP2 SWAP1 SUB DUP4 ADD SWAP1 KECCAK256 PUSH1 0x0 DUP6 DUP2 MSTORE PUSH1 0x3 DUP3 ADD SWAP1 SWAP4 MSTORE SWAP2 KECCAK256 SLOAD SWAP1 SWAP2 POP PUSH1 0xFF AND ISZERO PUSH2 0x1AD JUMPI PUSH1 0x40 MLOAD PUSH3 0x461BCD PUSH1 0xE5 SHL DUP2 MSTORE PUSH1 0x20 PUSH1 0x4 DUP3 ADD MSTORE PUSH1 0x13 PUSH1 0x24 DUP3 ADD MSTORE PUSH19 0x199A595B1917D85B1C9958591E57D859191959 PUSH1 0x6A SHL PUSH1 0x44 DUP3 ADD MSTORE PUSH1 0x64 ADD PUSH2 0x12A JUMP JUMPDEST PUSH1 0x2 DUP2 ADD DUP1 SLOAD PUSH1 0x1 DUP2 DUP2 ADD DUP4 SSTORE PUSH1 0x0 SWAP3 DUP4 MSTORE PUSH1 0x20 DUP1 DUP5 KECCAK256 SWAP1 SWAP3 ADD DUP6 SWAP1 SSTORE DUP5 DUP4 MSTORE PUSH1 0x3 DUP5 ADD SWAP1 SWAP2 MSTORE PUSH1 0x40 SWAP2 DUP3 SWAP1 KECCAK256 DUP1 SLOAD PUSH1 0xFF NOT AND SWAP1 SWAP2 OR SWAP1 SSTORE MLOAD PUSH32 0xE8C8D70A47CFD9E36447BFEF4703ABC190A6EA8608550A2C7FD4F0308E1365A9 SWAP1 PUSH2 0x215 SWAP1 DUP6 SWAP1 DUP6 SWAP1 PUSH2 0x9B2 JUMP JUMPDEST PUSH1 0x40 MLOAD DUP1 SWAP2 SUB SWAP1 LOG1 POP POP POP JUMP JUMPDEST PUSH1 0x60 PUSH1 0x1 DUP3 PUSH1 0x40 MLOAD PUSH2 0x234 SWAP2 SWAP1 PUSH2 0x996 JUMP JUMPDEST SWAP1 DUP2 MSTORE PUSH1 0x20 ADD PUSH1 0x40 MLOAD DUP1 SWAP2 SUB SWAP1 KECCAK256 DUP1 SLOAD PUSH2 0x24D SWAP1 PUSH2 0x9D4 JUMP JUMPDEST DUP1 PUSH1 0x1F ADD PUSH1 0x20 DUP1 SWAP2 DIV MUL PUSH1 0x20 ADD PUSH1 0x40 MLOAD SWAP1 DUP2 ADD PUSH1 0x40 MSTORE DUP1 SWAP3 SWAP2 SWAP1 DUP2 DUP2 MSTORE PUSH1 0x20 ADD DUP3 DUP1 SLOAD PUSH2 0x279 SWAP1 PUSH2 0x9D4 JUMP JUMPDEST DUP1 ISZERO PUSH2 0x2C6 JUMPI DUP1 PUSH1 0x1F LT PUSH2 0x29B JUMPI PUSH2 0x100 DUP1 DUP4 SLOAD DIV MUL DUP4 MSTORE SWAP2 PUSH1 0x20 ADD SWAP2 PUSH2 0x2C6 JUMP JUMPDEST DUP3 ADD SWAP2 SWAP1 PUSH1 0x0 MSTORE PUSH1 0x20 PUSH1 0x0 KECCAK256 SWAP1 JUMPDEST DUP2 SLOAD DUP2 MSTORE SWAP1 PUSH1 0x1 ADD SWAP1 PUSH1 0x20 ADD DUP1 DUP4 GT PUSH2 0x2A9 JUMPI DUP3 SWAP1 SUB PUSH1 0x1F AND DUP3 ADD SWAP2 JUMPDEST POP POP POP POP POP SWAP1 POP SWAP2 SWAP1 POP JUMP JUMPDEST PUSH1 0x60 DUP1 PUSH1 0x60 PUSH1 0x0 DUP1 DUP6 PUSH1 0x40 MLOAD PUSH2 0x2E8 SWAP2 SWAP1 PUSH2 0x996 JUMP JUMPDEST SWAP1 DUP2 MSTORE PUSH1 0x40 MLOAD SWAP1 DUP2 SWAP1 SUB PUSH1 0x20 ADD SWAP1 KECCAK256 PUSH1 0x5 ADD SLOAD PUSH1 0xFF PUSH2 0x100 SWAP1 SWAP2 DIV AND PUSH2 0x341 JUMPI PUSH1 0x40 MLOAD PUSH3 0x461BCD PUSH1 0xE5 SHL DUP2 MSTORE PUSH1 0x20 PUSH1 0x4 DUP3 ADD MSTORE PUSH1 0xE PUSH1 0x24 DUP3 ADD MSTORE PUSH14 0x1D5CD95C97DB9BDD17D95E1A5CDD PUSH1 0x92 SHL PUSH1 0x44 DUP3 ADD MSTORE PUSH1 0x64 ADD PUSH2 0x12A JUMP JUMPDEST PUSH1 0x0 DUP1 DUP7 PUSH1 0x40 MLOAD PUSH2 0x352 SWAP2 SWAP1 PUSH2 0x996 JUMP JUMPDEST SWAP1 DUP2 MSTORE PUSH1 0x20 ADD PUSH1 0x40 MLOAD DUP1 SWAP2 SUB SWAP1 KECCAK256 SWAP1 POP DUP1 PUSH1 0x1 ADD DUP2 PUSH1 0x2 ADD DUP3 PUSH1 0x4 ADD DUP4 PUSH1 0x5 ADD PUSH1 0x0 SWAP1 SLOAD SWAP1 PUSH2 0x100 EXP SWAP1 DIV PUSH1 0xFF AND DUP4 DUP1 SLOAD PUSH2 0x38C SWAP1 PUSH2 0x9D4 JUMP JUMPDEST DUP1 PUSH1 0x1F ADD PUSH1 0x20 DUP1 SWAP2 DIV MUL PUSH1 0x20 ADD PUSH1 0x40 MLOAD SWAP1 DUP2 ADD PUSH1 0x40 MSTORE DUP1 SWAP3 SWAP2 SWAP1 DUP2 DUP2 MSTORE PUSH1 0x20 ADD DUP3 DUP1 SLOAD PUSH2 0x3B8 SWAP1 PUSH2 0x9D4 JUMP JUMPDEST DUP1 ISZERO PUSH2 0x405 JUMPI DUP1 PUSH1 0x1F LT PUSH2 0x3DA JUMPI PUSH2 0x100 DUP1 DUP4 SLOAD DIV MUL DUP4 MSTORE SWAP2 PUSH1 0x20 ADD SWAP2 PUSH2 0x405 JUMP JUMPDEST DUP3 ADD SWAP2 SWAP1 PUSH1 0x0 MSTORE PUSH1 0x20 PUSH1 0x0 KECCAK256 SWAP1 JUMPDEST DUP2 SLOAD DUP2 MSTORE SWAP1 PUSH1 0x1 ADD SWAP1 PUSH1 0x20 ADD DUP1 DUP4 GT PUSH2 0x3E8 JUMPI DUP3 SWAP1 SUB PUSH1 0x1F AND DUP3 ADD SWAP2 JUMPDEST POP POP POP POP POP SWAP4 POP DUP3 DUP1 SLOAD DUP1 PUSH1 0x20 MUL PUSH1 0x20 ADD PUSH1 0x40 MLOAD SWAP1 DUP2 ADD PUSH1 0x40 MSTORE DUP1 SWAP3 SWAP2 SWAP1 DUP2 DUP2 MSTORE PUSH1 0x20 ADD DUP3 DUP1 SLOAD DUP1 ISZERO PUSH2 0x457 JUMPI PUSH1 0x20 MUL DUP3 ADD SWAP2 SWAP1 PUSH1 0x0 MSTORE PUSH1 0x20 PUSH1 0x0 KECCAK256 SWAP1 JUMPDEST DUP2 SLOAD DUP2 MSTORE PUSH1 0x20 ADD SWAP1 PUSH1 0x1 ADD SWAP1 DUP1 DUP4 GT PUSH2 0x443 JUMPI JUMPDEST POP POP POP POP POP SWAP3 POP DUP2 DUP1 SLOAD PUSH2 0x46A SWAP1 PUSH2 0x9D4 JUMP JUMPDEST DUP1 PUSH1 0x1F ADD PUSH1 0x20 DUP1 SWAP2 DIV MUL PUSH1 0x20 ADD PUSH1 0x40 MLOAD SWAP1 DUP2 ADD PUSH1 0x40 MSTORE DUP1 SWAP3 SWAP2 SWAP1 DUP2 DUP2 MSTORE PUSH1 0x20 ADD DUP3 DUP1 SLOAD PUSH2 0x496 SWAP1 PUSH2 0x9D4 JUMP JUMPDEST DUP1 ISZERO PUSH2 0x4E3 JUMPI DUP1 PUSH1 0x1F LT PUSH2 0x4B8 JUMPI PUSH2 0x100 DUP1 DUP4 SLOAD DIV MUL DUP4 MSTORE SWAP2 PUSH1 0x20 ADD SWAP2 PUSH2 0x4E3 JUMP JUMPDEST DUP3 ADD SWAP2 SWAP1 PUSH1 0x0 MSTORE PUSH1 0x20 PUSH1 0x0 KECCAK256 SWAP1 JUMPDEST DUP2 SLOAD DUP2 MSTORE SWAP1 PUSH1 0x1 ADD SWAP1 PUSH1 0x20 ADD DUP1 DUP4 GT PUSH2 0x4C6 JUMPI DUP3 SWAP1 SUB PUSH1 0x1F AND DUP3 ADD SWAP2 JUMPDEST POP POP POP POP POP SWAP2 POP SWAP5 POP SWAP5 POP SWAP5 POP SWAP5 POP POP SWAP2 SWAP4 POP SWAP2 SWAP4 JUMP JUMPDEST PUSH1 0x60 PUSH1 0x0 DUP6 PUSH1 0x40 MLOAD PUSH2 0x50C SWAP2 SWAP1 PUSH2 0x996 JUMP JUMPDEST SWAP1 DUP2 MSTORE PUSH1 0x40 MLOAD SWAP1 DUP2 SWAP1 SUB PUSH1 0x20 ADD SWAP1 KECCAK256 PUSH1 0x5 ADD SLOAD PUSH1 0xFF PUSH2 0x100 SWAP1 SWAP2 DIV AND ISZERO PUSH2 0x56A JUMPI PUSH1 0x40 MLOAD PUSH3 0x461BCD PUSH1 0xE5 SHL DUP2 MSTORE PUSH1 0x20 PUSH1 0x4 DUP3 ADD MSTORE PUSH1 0x12 PUSH1 0x24 DUP3 ADD MSTORE PUSH18 0x3734B1B5AFB0B63932B0B23CAFBA30B5B2B7 PUSH1 0x71 SHL PUSH1 0x44 DUP3 ADD MSTORE PUSH1 0x64 ADD PUSH2 0x12A JUMP JUMPDEST PUSH1 0x1 DUP5 PUSH1 0x40 MLOAD PUSH2 0x57A SWAP2 SWAP1 PUSH2 0x996 JUMP JUMPDEST SWAP1 DUP2 MSTORE PUSH1 0x20 ADD PUSH1 0x40 MLOAD DUP1 SWAP2 SUB SWAP1 KECCAK256 DUP1 SLOAD PUSH2 0x593 SWAP1 PUSH2 0x9D4 JUMP JUMPDEST ISZERO SWAP1 POP PUSH2 0x5E2 JUMPI PUSH1 0x40 MLOAD PUSH3 0x461BCD PUSH1 0xE5 SHL DUP2 MSTORE PUSH1 0x20 PUSH1 0x4 DUP3 ADD MSTORE PUSH1 0x1A PUSH1 0x24 DUP3 ADD MSTORE PUSH32 0x616464726573735F616C72656164795F72656769737465726564000000000000 PUSH1 0x44 DUP3 ADD MSTORE PUSH1 0x64 ADD PUSH2 0x12A JUMP JUMPDEST PUSH1 0x0 DUP1 DUP7 PUSH1 0x40 MLOAD PUSH2 0x5F3 SWAP2 SWAP1 PUSH2 0x996 JUMP JUMPDEST SWAP1 DUP2 MSTORE PUSH1 0x40 MLOAD SWAP1 DUP2 SWAP1 SUB PUSH1 0x20 ADD SWAP1 KECCAK256 SWAP1 POP DUP1 PUSH2 0x60F DUP8 DUP3 PUSH2 0xA5D JUMP JUMPDEST POP PUSH1 0x1 DUP2 ADD PUSH2 0x61E DUP7 DUP3 PUSH2 0xA5D JUMP JUMPDEST POP PUSH1 0x4 DUP2 ADD PUSH2 0x62D DUP6 DUP3 PUSH2 0xA5D JUMP JUMPDEST POP PUSH1 0x5 DUP2 ADD DUP1 SLOAD PUSH2 0xFF00 NOT DUP6 ISZERO ISZERO AND PUSH2 0xFFFF NOT SWAP1 SWAP2 AND OR PUSH2 0x100 OR SWAP1 SSTORE PUSH1 0x40 MLOAD DUP7 SWAP1 PUSH1 0x1 SWAP1 PUSH2 0x65D SWAP1 DUP9 SWAP1 PUSH2 0x996 JUMP JUMPDEST SWAP1 DUP2 MSTORE PUSH1 0x20 ADD PUSH1 0x40 MLOAD DUP1 SWAP2 SUB SWAP1 KECCAK256 SWAP1 DUP2 PUSH2 0x677 SWAP2 SWAP1 PUSH2 0xA5D JUMP JUMPDEST POP PUSH32 0x996D7324173609959370942B1EE1B743DC623B3D50459E66C1D55DF55E5A9F37 DUP7 DUP7 PUSH1 0x40 MLOAD PUSH2 0x6A9 SWAP3 SWAP2 SWAP1 PUSH2 0xB1C JUMP JUMPDEST PUSH1 0x40 MLOAD DUP1 SWAP2 SUB SWAP1 LOG1 POP POP PUSH1 0x40 DUP1 MLOAD DUP1 DUP3 ADD SWAP1 SWAP2 MSTORE PUSH1 0x10 DUP2 MSTORE PUSH16 0x72656769737465725F73756363657373 PUSH1 0x80 SHL PUSH1 0x20 DUP3 ADD MSTORE SWAP5 SWAP4 POP POP POP POP JUMP JUMPDEST PUSH4 0x4E487B71 PUSH1 0xE0 SHL PUSH1 0x0 MSTORE PUSH1 0x41 PUSH1 0x4 MSTORE PUSH1 0x24 PUSH1 0x0 REVERT JUMPDEST PUSH1 0x0 DUP3 PUSH1 0x1F DUP4 ADD SLT PUSH2 0x709 JUMPI PUSH1 0x0 DUP1 REVERT JUMPDEST DUP2 CALLDATALOAD PUSH8 0xFFFFFFFFFFFFFFFF DUP2 GT ISZERO PUSH2 0x723 JUMPI PUSH2 0x723 PUSH2 0x6E2 JUMP JUMPDEST PUSH1 0x40 MLOAD PUSH1 0x1F DUP3 ADD PUSH1 0x1F NOT SWAP1 DUP2 AND PUSH1 0x3F ADD AND DUP2 ADD PUSH8 0xFFFFFFFFFFFFFFFF DUP2 GT DUP3 DUP3 LT OR ISZERO PUSH2 0x752 JUMPI PUSH2 0x752 PUSH2 0x6E2 JUMP JUMPDEST PUSH1 0x40 MSTORE DUP2 DUP2 MSTORE DUP4 DUP3 ADD PUSH1 0x20 ADD DUP6 LT ISZERO PUSH2 0x76A JUMPI PUSH1 0x0 DUP1 REVERT JUMPDEST DUP2 PUSH1 0x20 DUP6 ADD PUSH1 0x20 DUP4 ADD CALLDATACOPY PUSH1 0x0 SWAP2 DUP2 ADD PUSH1 0x20 ADD SWAP2 SWAP1 SWAP2 MSTORE SWAP4 SWAP3 POP POP POP JUMP JUMPDEST PUSH1 0x0 DUP1 PUSH1 0x40 DUP4 DUP6 SUB SLT ISZERO PUSH2 0x79A JUMPI PUSH1 0x0 DUP1 REVERT JUMPDEST DUP3 CALLDATALOAD PUSH8 0xFFFFFFFFFFFFFFFF DUP2 GT ISZERO PUSH2 0x7B1 JUMPI PUSH1 0x0 DUP1 REVERT JUMPDEST PUSH2 0x7BD DUP6 DUP3 DUP7 ADD PUSH2 0x6F8 JUMP JUMPDEST SWAP6 PUSH1 0x20 SWAP5 SWAP1 SWAP5 ADD CALLDATALOAD SWAP5 POP POP POP POP JUMP JUMPDEST PUSH1 0x0 PUSH1 0x20 DUP3 DUP5 SUB SLT ISZERO PUSH2 0x7DE JUMPI PUSH1 0x0 DUP1 REVERT JUMPDEST DUP2 CALLDATALOAD PUSH8 0xFFFFFFFFFFFFFFFF DUP2 GT ISZERO PUSH2 0x7F5 JUMPI PUSH1 0x0 DUP1 REVERT JUMPDEST PUSH2 0x801 DUP5 DUP3 DUP6 ADD PUSH2 0x6F8 JUMP JUMPDEST SWAP5 SWAP4 POP POP POP POP JUMP JUMPDEST PUSH1 0x0 JUMPDEST DUP4 DUP2 LT ISZERO PUSH2 0x824 JUMPI DUP2 DUP2 ADD MLOAD DUP4 DUP3 ADD MSTORE PUSH1 0x20 ADD PUSH2 0x80C JUMP JUMPDEST POP POP PUSH1 0x0 SWAP2 ADD MSTORE JUMP JUMPDEST PUSH1 0x0 DUP2 MLOAD DUP1 DUP5 MSTORE PUSH2 0x845 DUP2 PUSH1 0x20 DUP7 ADD PUSH1 0x20 DUP7 ADD PUSH2 0x809 JUMP JUMPDEST PUSH1 0x1F ADD PUSH1 0x1F NOT AND SWAP3 SWAP1 SWAP3 ADD PUSH1 0x20 ADD SWAP3 SWAP2 POP POP JUMP JUMPDEST PUSH1 0x20 DUP2 MSTORE PUSH1 0x0 PUSH2 0x86C PUSH1 0x20 DUP4 ADD DUP5 PUSH2 0x82D JUMP JUMPDEST SWAP4 SWAP3 POP POP POP JUMP JUMPDEST PUSH1 0x80 DUP2 MSTORE PUSH1 0x0 PUSH2 0x886 PUSH1 0x80 DUP4 ADD DUP8 PUSH2 0x82D JUMP JUMPDEST DUP3 DUP2 SUB PUSH1 0x20 DUP5 ADD MSTORE DUP1 DUP7 MLOAD DUP1 DUP4 MSTORE PUSH1 0x20 DUP4 ADD SWAP2 POP PUSH1 0x20 DUP9 ADD SWAP3 POP PUSH1 0x0 JUMPDEST DUP2 DUP2 LT ISZERO PUSH2 0x8C1 JUMPI DUP4 MLOAD DUP4 MSTORE PUSH1 0x20 SWAP4 DUP5 ADD SWAP4 SWAP1 SWAP3 ADD SWAP2 PUSH1 0x1 ADD PUSH2 0x8A3 JUMP JUMPDEST POP POP DUP4 DUP2 SUB PUSH1 0x40 DUP6 ADD MSTORE PUSH2 0x8D5 DUP2 DUP8 PUSH2 0x82D JUMP JUMPDEST SWAP3 POP POP POP DUP3 ISZERO ISZERO PUSH1 0x60 DUP4 ADD MSTORE SWAP6 SWAP5 POP POP POP POP POP JUMP JUMPDEST PUSH1 0x0 DUP1 PUSH1 0x0 DUP1 PUSH1 0x80 DUP6 DUP8 SUB SLT ISZERO PUSH2 0x900 JUMPI PUSH1 0x0 DUP1 REVERT JUMPDEST DUP5 CALLDATALOAD PUSH8 0xFFFFFFFFFFFFFFFF DUP2 GT ISZERO PUSH2 0x917 JUMPI PUSH1 0x0 DUP1 REVERT JUMPDEST PUSH2 0x923 DUP8 DUP3 DUP9 ADD PUSH2 0x6F8 JUMP JUMPDEST SWAP5 POP POP PUSH1 0x20 DUP6 ADD CALLDATALOAD PUSH8 0xFFFFFFFFFFFFFFFF DUP2 GT ISZERO PUSH2 0x940 JUMPI PUSH1 0x0 DUP1 REVERT JUMPDEST PUSH2 0x94C DUP8 DUP3 DUP9 ADD PUSH2 0x6F8 JUMP JUMPDEST SWAP4 POP POP PUSH1 0x40 DUP6 ADD CALLDATALOAD PUSH8 0xFFFFFFFFFFFFFFFF DUP2 GT ISZERO PUSH2 0x969 JUMPI PUSH1 0x0 DUP1 REVERT JUMPDEST PUSH2 0x975 DUP8 DUP3 DUP9 ADD PUSH2 0x6F8 JUMP JUMPDEST SWAP3 POP POP PUSH1 0x60 DUP6 ADD CALLDATALOAD DUP1 ISZERO ISZERO DUP2 EQ PUSH2 0x98B JUMPI PUSH1 0x0 DUP1 REVERT JUMPDEST SWAP4 SWAP7 SWAP3 SWAP6 POP SWAP1 SWAP4 POP POP JUMP JUMPDEST PUSH1 0x0 DUP3 MLOAD PUSH2 0x9A8 DUP2 DUP5 PUSH1 0x20 DUP8 ADD PUSH2 0x809 JUMP JUMPDEST SWAP2 SWAP1 SWAP2 ADD SWAP3 SWAP2 POP POP JUMP JUMPDEST PUSH1 0x40 DUP2 MSTORE PUSH1 0x0 PUSH2 0x9C5 PUSH1 0x40 DUP4 ADD DUP6 PUSH2 0x82D JUMP JUMPDEST SWAP1 POP DUP3 PUSH1 0x20 DUP4 ADD MSTORE SWAP4 SWAP3 POP POP POP JUMP JUMPDEST PUSH1 0x1 DUP2 DUP2 SHR SWAP1 DUP3 AND DUP1 PUSH2 0x9E8 JUMPI PUSH1 0x7F DUP3 AND SWAP2 POP JUMPDEST PUSH1 0x20 DUP3 LT DUP2 SUB PUSH2 0xA08 JUMPI PUSH4 0x4E487B71 PUSH1 0xE0 SHL PUSH1 0x0 MSTORE PUSH1 0x22 PUSH1 0x4 MSTORE PUSH1 0x24 PUSH1 0x0 REVERT JUMPDEST POP SWAP2 SWAP1 POP JUMP JUMPDEST PUSH1 0x1F DUP3 GT ISZERO PUSH2 0xA58 JUMPI DUP1 PUSH1 0x0 MSTORE PUSH1 0x20 PUSH1 0x0 KECCAK256 PUSH1 0x1F DUP5 ADD PUSH1 0x5 SHR DUP2 ADD PUSH1 0x20 DUP6 LT ISZERO PUSH2 0xA35 JUMPI POP DUP1 JUMPDEST PUSH1 0x1F DUP5 ADD PUSH1 0x5 SHR DUP3 ADD SWAP2 POP JUMPDEST DUP2 DUP2 LT ISZERO PUSH2 0xA55 JUMPI PUSH1 0x0 DUP2 SSTORE PUSH1 0x1 ADD PUSH2 0xA41 JUMP JUMPDEST POP POP JUMPDEST POP POP POP JUMP JUMPDEST DUP2 MLOAD PUSH8 0xFFFFFFFFFFFFFFFF DUP2 GT ISZERO PUSH2 0xA77 JUMPI PUSH2 0xA77 PUSH2 0x6E2 JUMP JUMPDEST PUSH2 0xA8B DUP2 PUSH2 0xA85 DUP5 SLOAD PUSH2 0x9D4 JUMP JUMPDEST DUP5 PUSH2 0xA0E JUMP JUMPDEST PUSH1 0x20 PUSH1 0x1F DUP3 GT PUSH1 0x1 DUP2 EQ PUSH2 0xABF JUMPI PUSH1 0x0 DUP4 ISZERO PUSH2 0xAA7 JUMPI POP DUP5 DUP3 ADD MLOAD JUMPDEST PUSH1 0x0 NOT PUSH1 0x3 DUP6 SWAP1 SHL SHR NOT AND PUSH1 0x1 DUP5 SWAP1 SHL OR DUP5 SSTORE PUSH2 0xA55 JUMP JUMPDEST PUSH1 0x0 DUP5 DUP2 MSTORE PUSH1 0x20 DUP2 KECCAK256 PUSH1 0x1F NOT DUP6 AND SWAP2 JUMPDEST DUP3 DUP2 LT ISZERO PUSH2 0xAEF JUMPI DUP8 DUP6 ADD MLOAD DUP3 SSTORE PUSH1 0x20 SWAP5 DUP6 ADD SWAP5 PUSH1 0x1 SWAP1 SWAP3 ADD SWAP2 ADD PUSH2 0xACF JUMP JUMPDEST POP DUP5 DUP3 LT ISZERO PUSH2 0xB0D JUMPI DUP7 DUP5 ADD MLOAD PUSH1 0x0 NOT PUSH1 0x3 DUP8 SWAP1 SHL PUSH1 0xF8 AND SHR NOT AND DUP2 SSTORE JUMPDEST POP POP POP POP PUSH1 0x1 SWAP1 DUP2 SHL ADD SWAP1 SSTORE POP JUMP JUMPDEST PUSH1 0x40 DUP2 MSTORE PUSH1 0x0 PUSH2 0xB2F PUSH1 0x40 DUP4 ADD DUP6 PUSH2 0x82D JUMP JUMPDEST DUP3 DUP2 SUB PUSH1 0x20 DUP5 ADD MSTORE PUSH2 0xB41 DUP2 DUP6 PUSH2 0x82D JUMP JUMPDEST SWAP6 SWAP5 POP POP POP POP POP JUMP INVALID LOG2 PUSH5 0x6970667358 0x22 SLT KECCAK256 0xE2 0xC9 PUSH0 DUP9 PUSH25 0x3366B9DAFD2D82AE9A7EFEA81527F5737D60B84E7D22E69AAC BLOBHASH SWAP13 PUSH5 0x736F6C6343 STOP ADDMOD SHR STOP CALLER ","sha1":"a55eb375eec53cad2c2af3b7c0369bdb263e201f","source":"// SPDX-License-Identifier: MIT\npragma solidity ^0.8.0;\n\ncontract UserRegistry {\n    struct User {\n        string nick;\n        string public_key;\n        uint256[] expertFields;\n        mapping(uint256 => bool) hasExpertField; // For checking duplicates\n        string additional_data;\n        bool is_bot;\n        bool exists;\n    }\n\n    mapping(string => User) private users;\n    mapping(string => string) private addressToNick;\n\n    event UserRegistered(string nick, string public_key);\n    event ExpertFieldAdded(string nick, uint256 fieldId);\n\n    function registerUser(\n        string memory _nick,\n        string memory _publicKey,\n        string memory _additionalData,\n        bool _isBot\n    ) public returns (string memory) {\n        require(!users[_nick].exists, \"nick_already_taken\");\n        require(bytes(addressToNick[_publicKey]).length == 0, \"address_already_registered\");\n\n        User storage user = users[_nick];\n        user.nick = _nick;\n        user.public_key = _publicKey;\n        user.additional_data = _additionalData;\n        user.is_bot = _isBot;\n        user.exists = true;\n\n        addressToNick[_publicKey] = _nick;\n\n        emit UserRegistered(_nick, _publicKey);\n\n        return \"register_success\";\n    }\n\n    function addExpertField(string memory _nick, uint256 _fieldId) external {\n        require(users[_nick].exists, \"user_not_exist\");\n        User storage user = users[_nick];\n\n        require(!user.hasExpertField[_fieldId], \"field_already_added\");\n\n        user.expertFields.push(_fieldId);\n        user.hasExpertField[_fieldId] = true;\n\n        emit ExpertFieldAdded(_nick, _fieldId);\n    }\n\n    function getUserInfo(string memory _nick)\n        public\n        view\n        returns (\n            string memory public_key,\n            uint256[] memory expertFields,\n            string memory additional_data,\n            bool is_bot\n        )\n    {\n        require(users[_nick].exists, \"user_not_exist\");\n        User storage user = users[_nick];\n        return (\n            user.public_key,\n            user.expertFields,\n            user.additional_data,\n            user.is_bot\n        );\n    }\n\n    function getNickByAddress(string memory _address) external view returns (string memory) {\n        return addressToNick[_address];\n    }\n}\n","sourcePath":"contracts/UserRegistry.sol","deployment":{"address":"0xb379c9120F75859dc8C5A92d474515bB481bE9A5","chainid":"11155111","blockHeight":7195202}}